:020000041000EA
:1000000000B5324B212058609868022188439860DF
:10001000D860186158612E4B002199600221596106
:100020000121F02299502B49196001219960352056
:1000300000F044F80222904214D00621196600F024
:1000400034F8196E01211966002018661A6600F04E
:100050002CF8196E196E196E052000F02FF8012189
:100060000842F9D1002199601B49196000215960AB
:100070001A491B48016001219960EB211966A021F2
:10008000196600F012F800219960164914480160C1
:100090000121996001BC002800D000471248134993
:1000A000086003C880F30888084703B5996A0420EC
:1000B0000142FBD001200142F8D103BD02B5186610
:1000C0001866FFF7F2FF186E186E02BD00000240BE
:1000D000000000180000070000035F00212200005C
:1000E000F4000018222000A00001001008ED00E03C
:1000F00000000000000000000000000074B24E7A12
:1001000000200420F7010010C3010010C5010010F9
:10011000C1010010C1010010C1010010C101001097
:10012000C1010010C1010010C1010010C701001081
:10013000C1010010C1010010C9010010CB01001065
:10014000CD010010CD010010CD010010CD01001037
:10015000CD010010CD010010CD010010CD01001027
:10016000CD010010CD010010CD010010CD01001017
:10017000CD010010CD010010CD010010CD01001007
:10018000CD010010CD010010CD010010CD010010F7
:10019000CD010010CD010010CD010010CD010010E7
:1001A000CD010010CD010010CD010010CD010010D7
:1001B000CD010010CD010010CD010010CD010010C7
:1001C00000BE00BE00BE00BE00BE00BE00F04BF888
:1001D000103800BEF2EB8871580901107409011043
:1001E0003402001090A31AE700202149086006C8D5
:1001F00081F3088810471F48006800282FD10DA4FC
:100200000ECC002902D000F012F8F9E71A491B4A77
:10021000002000E001C19142FCD1194988471949E9
:1002200088471949884700BEFDE701C901C29A42C3
:10023000FBD3704774090110C0000020140C00208B
:10024000C81401100000042000000420C81401108C
:1002500000100420001004200000000070470B482C
:1002600003F03CFD0047EFF30580C0B2704700008B
:1002700008ED00E0000000D0180C0020D819002084
:10028000BD22001099060010C5230010575600002B
:1002900006005250ABB360530003011006005250E9
:1002A000861C030210030110060052505422A29D26
:1002B0002403011005005250DE65F468C8140110D3
:1002C000F8B5C04610B5064C2378002B07D1054B76
:1002D000002B02D0044800E000BF0123237010BDB2
:1002E000200C002000000000087F0010044B10B517
:1002F000002B03D00349044800E000BF10BDC046F6
:1003000000000000240C0020087F0010F0B5D64645
:100310004F464646C0B584B0CA4B187800F010FE70
:10032000002000F0AFFB002410E0A5B2C64E320062
:100330000021280000F0D2FA00F074FE81B20139E9
:1003400089B23200280000F0C9FA013400F070FED2
:10035000A042EADC002410E0A5B2BB4E3200290026
:10036000002000F0BBFA00F063FE80B2013880B2DA
:100370003200290000F0B2FA013400F053FEA0422E
:10038000EADC00F055FE040000F04CFE0300AE4D28
:10039000009522000021002000F05AFC00F048FEE9
:1003A000040000F03FFE0300009500220021200021
:1003B00000F04EFCFA20C00001F09EFB002000F08F
:1003C00061FB00240AE000F033FE82B2013A12B26F
:1003D00021B29D4B002000F0BDFC043400F022FE51
:1003E000A042F0DC00240AE000F01CFE82B2013AD8
:1003F00012B220B2944B002100F08CFC043400F0C7
:1004000017FEA042F0DCFA26F600300001F074FB83
:10041000002000F037FB8D4B00250295F8221202D8
:10042000914601925A6800921B68894A0021002077
:1004300000F07EFA874C0295FC23DB00984601937E
:10044000636800932368844A1E21002000F070FA3C
:10045000824B02951F22924601925A6800921B68B5
:100460007F4A5421002000F063FA300001F044FB81
:10047000002000F007FB0295734F0197636800931B
:100480002368784A0021002000F052FAFA2676000C
:10049000300001F031FB1F2000F0F4FA53460293C4
:1004A00001956368009323686F4A0021002000F0E3
:1004B0003FFA300001F020FB484600F0E3FA4B46DB
:1004C00002930195636800932368684A0021002025
:1004D00000F02EFA300001F00FFB404600F0D2FA97
:1004E000434602930195636800932368604A0021A4
:1004F000002000F01DFA300001F0FEFA5D4B984636
:10050000180000F0BFFA4346029301956368009318
:100510002368594A0021002000F00AFA300001F057
:10052000EBFA564B9846180000F0ACFA434602939B
:100530000195636800932368514A0021002000F070
:10054000F7F9300001F0D8FA4E4B9846180000F049
:1005500099FA4346029301956368009323684A4AD7
:100560000021002000F0E4F9300001F0C5FA380065
:1005700000F088FA02970195636800932368434A64
:100580000021002000F0D4F9300001F0B5FA00207D
:1005900000F078FA002411E000F04AFD050000F0B8
:1005A00041FD22B2C10F0918491009B2E80F4019E4
:1005B000401000B2334B00F0A7FA023400F032FDD5
:1005C0000300C00FC018401000B2A042E4DCFA26BD
:1005D000B600300001F090FA002000F053FA00F06D
:1005E00027FD040000F01EFD050000F021FDE20FD4
:1005F0001219521012B2F8231B0202930023019326
:1006000000902B000021002000F0C4FB300001F01E
:1006100073FA002000F036FA1D4B00936423642225
:100620001E210A2000F040FA1A4801F065FA054A36
:1006300013780133137004B0E0BCBA46B146A84643
:10064000F0BDC046D4190020FFFF00000C030020BD
:10065000087F0010FC0200203C7F001004030020F3
:100660005C7F0010687F0010707F0010787F0010A2
:100670007C7F0010FF070000847F00101FF800003F
:100680008C7F0010E0FF0000947F00109C7F001022
:10069000A47F0010B80B000010B504F0E3FB124972
:1006A000124806F037FF0121122000F0C7FC01219B
:1006B000132000F0C3FC152000F0D8FCD024240641
:1006C00080239B036362112000F0D0FC80239B02F7
:1006D0006362142000F0CAFC80235B03636200F0B5
:1006E000E3F8FFF713FEFCE700093D0000C00340FC
:1006F00070B5D02424068025AD03A561142001F037
:10070000FBF9656170BD000000B583B06B46D91D73
:100710000870D0231B06802252039A6101220248EE
:1007200007F0E2FB03B000BD00C0034010B50A00B3
:10073000D0231B068021490359610100014807F0BD
:10074000D3FB10BD00C00340F8B5441C03780AE099
:1007500039002800FFF7EAFFED1912E001F0CCF9AB
:10076000250033002C005E1EF6B2002B12D020783C
:10077000FFF7CAFFA51C64787F231F002740234290
:10078000E6D164B2002CECDA6C1C2878FF28E5D1A5
:10079000F530E3E7F8BD0000F0B5C64600B582B01D
:1007A00006000D0090461F002A20FFF7ADFF01ACA8
:1007B000002323700F4A11788E196670A37041448C
:1007C000E17004212000FFF7B1FF2B20FFF79CFF11
:1007D000094B1A7855196570D219E270042120006E
:1007E000FFF7A4FF2C20FFF78FFF02B080BCB846B4
:1007F000F0BDC046CF190020D019002082B0F0B55E
:10080000DE4657464E464546E0B583B093460DACAE
:100810000D930FAB1B88984610AB1F88C0B2C9B2AE
:1008200025784219D2B263789A46CB18DBB2013BE5
:10083000DBB2013AD2B2FFF7AFFF002399461DE0C9
:100840003B0A6A4613715771022101A8FFF76EFF38
:100850000134A5420FD93300A3401B04F0D5434611
:100860001B0A6A4613716B4642465A71022101A85F
:10087000FFF75CFFECE701239C46E144CA4509D938
:100880005B46203B524653434B445B000E9A9E5AB4
:100890000024DEE703B0F0BCBB46B246A946A04642
:1008A000F0BC08BC02B0184770B5D02424068025DF
:1008B000AD02A561FFF71CFF0548FFF745FF05489E
:1008C000FFF742FF0448FFF73FFF656170BDC04678
:1008D000C4CD001000CE001010CE001070B582B054
:1008E0001400114B00229B5E984204DA0F4B002249
:1008F0009B5E994201DB02B070BDD0252D0680269B
:10090000B602AE61C0B2C9B24B1CDBB2421CD2B25D
:10091000FFF742FF230A6A4613715471022101A8AE
:10092000FFF704FF6E61E6E7FA020020F8020020FC
:1009300082B0F0B5CE46474680B585B005000F00C1
:1009400016000D930FAB1B88994610AB1B88984679
:10095000D0231B06802292029A6110E00136002506
:100960000DE0434602934B4601930E9B00930D9B73
:1009700039002800FFF742FF6519ADB20136327821
:10098000002A15D00DAB1C782919104B00201B5ED6
:100990009942E6DB0DA94B78DF19BFB2FB180C4971
:1009A0000020095E8B4203DA202AD7D00025D8E741
:1009B000D0231B06802292025A6105B0C0BCB94602
:1009C000B046F0BC08BC02B01847C046FA0200208E
:1009D000F8020020F0B5C64600B584B016001D0030
:1009E0000AAB1C88244B00229B5E009398423FDA9E
:1009F000224A0027D25F0192914239DA3718BB426E
:100A000002DA9EB2361AB6B26B18019F9F4202DA22
:100A100095B26D1AADB2D0273F0680239B02BB6111
:100A2000C0B2C9B28219D2B24B19DBB2013BDBB200
:100A3000013AD2B2FFF7B0FE03AB220A1A705C7023
:100A400080235B037B610AE0022203A90C4807F0C4
:100A50004BFA013CA4B2002CF6D1013DADB2002D01
:100A600001D03400F7E7D0231B06802292025A619E
:100A700004B080BCB846F0BDFA020020F8020020A5
:100A800000C0034000B583B0054B1B88054A12889F
:100A9000009000210020FFF79DFF03B000BDC0467D
:100AA000F8020020FA020020F8B515001C00144BD3
:100AB00000229B5E98420ADA124A0026925F914217
:100AC00005DA2E18B34202DB63189A4200DAF8BD49
:100AD000D02636068027BF02B761C0B2C9B242191C
:100AE000D2B20B19DBB2013BDBB2013AD2B2FFF753
:100AF00053FE6C4361000698FFF718FE7761E6E746
:100B0000FA020020F8020020F0B5DE4657464E46B5
:100B10004546E0B587B001921E0094B201231B1B2D
:100B20001BB2994663421B1B1BB2059383B29A46C4
:100B30008BB29B465346E01880B232005946FFF70D
:100B4000CDFE5346181B80B232005946FFF7C6FE51
:100B50005B46191B89B232005046FFF7BFFE5C446A
:100B6000A1B232005046FFF7B9FE002302930133D1
:100B700003935EE0019B013B1BB20193059A023295
:100B800093B212B205924B441BB29946029B0133B9
:100B90009CB21BB20293039A023293B212B2039236
:100BA0004B441BB2994653461F19BFB26B469D88F2
:100BB0005B465B199BB29846320019003800FFF77C
:100BC0008DFE53461B1B9BB2320041460493180016
:100BD000FFF784FE5A46531B9AB2904632004146B4
:100BE0000498FFF77BFE320041463800FFF776FE9F
:100BF00053465F19BFB25B461B199BB29846320041
:100C000019003800FFF76AFE53465D1BADB2320093
:100C100041462800FFF762FE5B461C1BA4B232006F
:100C200021002800FFF75AFE320021003800FFF7AC
:100C300055FE019B029A934203DD4B46002B99DA45
:100C4000A4E707B0F0BCBB46B246A946A046F0BD3B
:100C5000F0B5DE4657464E464546E0B583B00F0038
:100C600016001C000CAB1B889B46631ADA179B18F6
:100C700053409846331ADA179B18534099469845C3
:100C800004DC230034001E0007000800A74205DC36
:100C900033000600180023003C001F003D1BABB2D0
:100CA00000932DB2831BDA179B1853409A46EB0F23
:100CB0005D196D10864223DB01235B4201930CE03A
:100CC000B1B2A0B25A46FFF709FE5346EB1A9AB2E8
:100CD0001DB21B040BD4013424B2BC4213DCC84542
:100CE000EEDDA1B2B0B25A46FFF7F8FDEDE7019B89
:100CF0009C46664436B2009B9C46624415B2EAE7C5
:100D000001230193E9E703B0F0BCBB46B246A94614
:100D1000A046F0BD30B583B01C000C4B00255B5FD6
:100D2000834211DD0A4B00255B5F8B420CDD8D1881
:100D30009D4201DD5A1A12B28A1892B2013A13B2D8
:100D400000940200FFF784FF03B030BDFA020020D8
:100D5000F802002070B582B00C4C0025645F84421C
:100D600011DD0B4D0026AD5F8D420CDD8518A542CF
:100D700001DD221A12B2821892B2013A12B2009325
:100D80000B00FFF765FF02B070BDC046FA020020FD
:100D9000F8020020F0B5DE4657464E464546E0B51F
:100DA0008BB001911E00099314AB00241F5F15AB9B
:100DB00000255C5F049416AB1C88A246B14204DC9B
:100DC000099101961300020018000199049CA142A8
:100DD00004DC049101943B00070018000999049C6D
:100DE000A14204DC049109943B0017001A00049B03
:100DF00001998B4226D094B20594BFB2E31B9BB2FB
:100E00000693099EB2B26B46198A531A1BB2079316
:100E100080B2C31B9BB29946019DABB2591A09B26D
:100E20008846001B81B202919B1A1BB20893AE4206
:100E300027D0013A13B20393049D00230026BB463A
:100E40001F002BE0974201DC14DB3A00904202DBEA
:100E5000B84213DC10003A1A92B2013212B2534671
:100E60000499FFF777FF0BB0F0BCBB46B246A9462A
:100E7000A046F0BD13003A001F00E7E7070010008E
:100E8000E9E7099B0393D7E7221A92B2013212B223
:100E900053462900FFF75EFF01352DB2039B9D42AB
:100EA00017DC0799300002F045FF584404B2414670
:100EB000380002F03FFF584400B2069B9C4666444F
:100EC00036B24F443FB28442DEDC030020001C00F7
:100ED000DAE75F46099BEB1A029A53431BB29B4623
:100EE000049BEE1A4B465E4336B25B46BB461F0080
:100EF00009E0221A92B2013212B253462900FFF7DA
:100F000029FF01352DB2019BAB42ACDB08993800BB
:100F100002F010FF059B9C46604404B2414630003D
:100F200002F008FF584400B2029B9C4667443FB25F
:100F30004E4436B28442DCDC030020001C00D8E7BB
:100F400010B582B003230340314C2370D0231B061D
:100F5000802292029A613620FFF7D6FB2378022B7B
:100F600044D015D8002B28D0012B38D16B46D81D82
:100F7000A02404700121FFF7D9FB264B1C80264BCF
:100F800080221A800023254A1370254A137026E018
:100F9000032B24D16B46D81D602303700121FFF77A
:100FA000C5FB1C4BA0221A801B4B203A1A80002341
:100FB0001A4A13701A4A137011E06B46D81DC023E9
:100FC00003700121FFF7B2FB124B80221A80124BF3
:100FD00020321A800023114A1370114A1370D02353
:100FE0001B06802292025A6102B010BD6B46D81DCA
:100FF000002404700121FFF799FB064B80221A8020
:10100000054B20321A80054B1C70054B1C70E6E71F
:10101000CE190020FA020020F8020020CF1900208B
:10102000D0190020014B0020185E7047F802002004
:10103000014B0020185E7047FA02002010B58300B3
:10104000084A944663441C6840226240C02414400D
:101050008022520113431C60C000034B9C46604435
:10106000416010BD04C001400040014010B50123A3
:101070008340D0221206936293610521FFF7DEFFC1
:1010800010BD0000EFF3108072B6034B1B68002BFD
:10109000FBD0BFF35F8F70472C0100D0BFF35F8F91
:1010A000024B00221A6080F3108870472C0100D098
:1010B000F8B505000C001600FFF7E4FFE308EF1891
:1010C000EA5C072323401100D940C90706D4012157
:1010D00099400A433A70FFF7E1FFF8BD2100300064
:1010E00001F092F9F0B583B00600019114001F00E1
:1010F000FFF7C8FF050000E00134BC420DD8E2084C
:10110000B018B15C072222400B00D340DB07F3D4B8
:10111000012393401943017001E001246442280037
:10112000FFF7BCFF002C02DB200003B0F0BD019BE9
:10113000002BF9D0089801F067F90000002307E0C0
:10114000054A9A189200BFF35F8F002111600133A6
:101150001F2BF5D97047C04640000034054A10786F
:10116000431CDBB21370172B02D9130010221A7024
:101170007047C0461403002000B583B00100044B43
:1011800000931F2318220348FFF7ACFF03B000BDF4
:1011900050F60010B4100020034B1B6802201840CA
:1011A000431E9841C0B2704700C0064040BF0020B7
:1011B0000021704710B5002922D003681B7B99429B
:1011C0001ED8174B9C466144090183689C466144C4
:1011D0000C684968002A19D003681B7B9A4215D80D
:1011E00083680F488446624412019A181068536855
:1011F000020001208B4201D80ED00020C0B210BDE9
:10120000084B094A3B21094801F0E0F8054B064A22
:101210003B21064801F0DAF8A242EFD8EDE7C046DC
:10122000FFFFFF0F6CF60010FCF8001090F60010A6
:1012300010B500291ED0037B99421BD84B005B18C8
:10124000033B0468A4466344002919D0002A1DD03A
:10125000914221D0002A25D0047BA24222D80468E2
:1012600050008018033820188170197800291FD188
:101270001A7010BD104B114A4D21114801F0A6F80B
:10128000104B114A53310E4801F0A0F80F4B0E4A93
:1012900054210B4801F09AF80D4B0B4A5521084890
:1012A00001F094F8044B054A4D21054801F08EF8F1
:1012B00041701A70DDE7C046D0F60010BCF800108F
:1012C000ECF6001030F700109CF800103CF700100E
:1012D00048F7001070B506000D001400002914D066
:1012E000002A14D0806873689847002806D022002E
:1012F00029003000FFF79CFF280007E02A002100AA
:101300003000FFF795FF200000E0100070BD0800DE
:10131000FCE70000F0B5CE4600B582B005000092B3
:1013200001930A9C0BAB1B789946002C29D00268CC
:10133000E3B2517B8B4209D10123002B1BD1002C3E
:1013400039D1200002B080BCB946F0BD002B0CD0D2
:10135000117B8B4209D811685A00D318033BCB1874
:101360009B78002BE9D00123E7E73D4B3D4A4D2117
:101370003D4801F02BF83D4B3D4A51213D4801F0DD
:1013800025F803689C7B002CD9D00ED01A7B9442A0
:101390000BD862001219033A19688C4662445278DD
:1013A0009A73002ACBD1DA73C9E72D4B2D4A4D2110
:1013B0002D4801F00BF8E7B2002F3AD02B681B7BC9
:1013C0009F4236D82C4BFB181B01AA6894466344F5
:1013D000009A1A60019A5A60089A9A60099ADA602B
:1013E0002E68002F2BD030D0337B9F422DD87B002E
:1013F000DB19033B32689446634400229A705A70AA
:101400001A70717B3A003000FFF764FF7073A042DE
:1014100097D1287D009A019B00F072FC061E02D035
:101420004B46002B17D00C9B002B00D189E71E7078
:1014300087E7124B124A3B210E4800F0C7FF114BC1
:10144000114A7721084800F0C1FF054B054A4D219C
:10145000054800F0BBFF2868390000F0B3FEE2E762
:10146000D0F60010BCF80010ECF6001060F7001089
:10147000C8F8001090F60010FFFFFF0F6CF6001088
:10148000FCF8001084F70010B0F80010F0B5DE464C
:1014900057464E464546E0B58BB009900023089369
:1014A0008200A44BD65837004CE0A34BA34A3B2103
:1014B000A34800F08BFF002901D1002868D1012149
:1014C000404600F075FEA04219D12A686B6806926A
:1014D0000793AB689846EB689A464346002B14D0B6
:1014E000002C18D03B681B7B9C4214D8631EFA6802
:1014F000D35C08931B0218433861002015E0914B20
:10150000914A78218E4800F061FF904B8E4A7C21F1
:101510008B4800F05BFF884B8D4A4021884800F0E3
:1015200055FF00239A46984600207B68BFF35F8FE3
:1015300000221A6086F310884346002B31D1002820
:1015400000D1EFE000F074FB02000B00002000214E
:10155000069007917868EFF3108672B6016800294B
:10156000FCD0BFF35F8F396888464C7B002CD8D005
:101570009BD0097B8C4298D8764965182D01B968B3
:101580008C46654428686968801A9941002992DD73
:101590002A686B68099800F0B3FB00239A469846C6
:1015A000C3E7089B1B022343994651461800C047D6
:1015B00005000E007A68EFF3108B72B6136859427B
:1015C0004B41D9B2002BF9D1BFF35F8F002E23DB43
:1015D000002E47DD3B69002B48D04B4567D100F01A
:1015E00027FB02000B0001001800521973419842BA
:1015F00002D804D1914202D901225242D3170021CC
:1016000004910131039102945146019141460091A8
:101610003800FFF77FFE41E03B69002BD8D04B45F7
:101620001AD1069A079B10001900521BB341994228
:1016300002D804D1904202D901225242D31700218C
:101640000491013103910294514601914146009168
:101650003800FFF75FFE21E03F4B3B4A8B213848C3
:1016600000F0B4FE002E01D1002DB3D13A68002C59
:1016700039D0537B9C4220D10121002933D1D37B27
:10168000002B36D1D473002C46D03B681B7B9C4288
:1016900042D8FA68013C135D0133135500233B61C6
:1016A0007A68BFF35F8F13608BF310884AE72A4B89
:1016B000254A8E21224800F089FE002C0DD0137B94
:1016C0009C420AD863001B19033B1068844663449C
:1016D0009B78002BD1D00121CFE7204B204A4D2110
:1016E000204800F073FE204B204A8F211D4800F057
:1016F0006DFE002B0AD0117B8B4207D85900CB1806
:10170000033B11688C4663445C70BBE7134B144A7F
:101710004D21144800F05AFE074B0D4A402108485D
:1017200000F054FE0BB0F0BCBB46B246A946A04642
:10173000F0BDC046A01700206CF60010FCF80010A9
:1017400090F6001088F70010E0F80010A0F70010E5
:1017500074F80010FFFFFF0FACF70010D0F6001078
:10176000BCF80010ECF60010E8F7001088F8001044
:1017700010B5054B1868002800D010BD034B044A73
:101780003521044800F022FEE010002008F8001087
:101790005CF8001090F6001070B505000E0000F027
:1017A0003BFA280000F014FB1249280000F060FA10
:1017B000182003F001FA0400FFF7D0FC0E4B9C4602
:1017C00060448000606022000C49300000F002FCA0
:1017D00020601021300003F0F3F9A06001213000F7
:1017E00003F0EEF9E0602575AD00054BEC502000EC
:1017F00070BDC0468D14001040000034B5110010BB
:10180000A017002010B5064B1B68002B00D010BDA0
:1018100010210320FFF7C0FF014B1860F7E7C04617
:10182000E0100020F0B5DE4657464E464546E0B58E
:1018300089B0804616001F00129B9A46139B99465A
:1018400014AB1B789B461F236B4400221A702CE0BC
:10185000002B09D042461268127B934204D85A1ECC
:101860004146C968895C3DE0354B364A40213648DF
:1018700000F0ACFD0020002A5BD05B46002B58D066
:101880004946D04704000D0003000B434DD000290A
:101890003CDA32003B00361BAF41BB4202D804D1D8
:1018A000B24202D901267642F71743465A68EFF34F
:1018B000108472B61368002BFCD0BFF35F8F1F2318
:1018C0006B4404930023039302934B4601935346C6
:1018D000009332003B004046FFF71CFDC3B2002BD3
:1018E000B6D1190042465268BFF35F8F00251560DC
:1018F00084F31088002B1AD01F236B441A78002A17
:10190000B8D10902FF2318400843B4E700F090F96A
:1019100006000F0036196F41B94202D8C5D1B04256
:10192000C3D901267642F717BFE7002001E0012066
:10193000404209B0F0BCBB46B246A946A046F0BD45
:101940006CF6001074F8001090F60010F8B5040062
:101950004268EFF3108572B6136858424341D8B21B
:10196000002BF9D1BFF35F8FCBB22268567BB34215
:101970001BD10120002846D0206988422BD0090ABB
:10198000C9B2002B2DD02068007B834229D8581E75
:10199000E668305C88422AD000206368BFF35F8F1E
:1019A00000221A6085F31088F8BD002B0DD0167B3D
:1019B000B3420AD85E00F618033E1768BC46664478
:1019C000B678002ED6D00120D4E7124B124A4D2112
:1019D000124800F0FBFC124B124AE021124800F0C2
:1019E000F5FC124B124A40210F4800F0EFFC1900A1
:1019F000100000F0E7FB0028CFD10E4B094AE72189
:101A0000094800F0E3FC23698B42C6D1002323611F
:101A1000C3E7C046D0F60010BCF80010ECF600108A
:101A20001CF8001044F8001090F600106CF600103E
:101A300074F8001040F80010F0B587B006000F00F1
:101A400006246442E517A4197D418D4202D803D1D2
:101A5000844201D9002400250494059500F0E8F89B
:101A6000241A8D41002D08DC05D03000390000F02B
:101A7000EBF807B0F0BD002CF7D0FFF779FE00239C
:101A8000029301930F4B0093049A059BFFF7CAFE44
:101A9000002806DAE9E7002300E00023002BE4D168
:101AA00020BF0499059A084B5B6A9A42F5D806480C
:101AB000806A884203D29A42EDD00123EEE70123E7
:101AC000ECE7C046AD11001000400540F8B5040039
:101AD0000D0000F0ADF802000B0020002900801876
:101AE00059418B4202D804D1824202D9012040429E
:101AF000C117FFF7A1FFF8BD10B5FA22920000232D
:101B0000002102F0A7FFFFF7E1FF10BD70B584B020
:101B100006000C00FFF72CFE002302930193194BE3
:101B2000009332002300FFF77DFE051E11DD20BF6C
:101B3000FFF71EFE2900FFF709FF134B5B6A9C426B
:101B40001BD8114A926AB2421AD29C4213D0012089
:101B500014E00D4B5B6A9C4209D80B4A926AB24270
:101B600007D29C4201D0012008E0002006E00020BE
:101B700004E0012002E0002000E0002004B070BD7D
:101B80000120FBE7AD1100100040054070B5EFF3F8
:101B900005833F2018401038EFF3108C72B6194BB4
:101BA0001B68002BFBD0BFF35F8F0123190081401E
:101BB000154A5163154A12781400C440234214D0C8
:101BC000114B5C6A8300124D5B599C4206D3830023
:101BD000104C1B598A430D490A7007E00A4A031D3D
:101BE0009B0099589950002300E00023BFF35F8FBA
:101BF000044A002111608CF31088002B00D0984714
:101C000070BDC046280100D000400540D519002015
:101C1000BC190020A410002010B50100024A03489E
:101C2000FFF746FA10BDC04608F90010D21900208F
:101C3000044B5B6A034A906A1900536A9942F9D1CE
:101C40007047C04600400540084B5B6A01E0074B07
:101C50005B6A8B42FBD301E0044B5B6A8B4203D18E
:101C6000024B9B6A8342F7D37047C0460040054051
:101C700070B504000D00EFF3108672B61B4B1B68A5
:101C8000002BFBD0BFF35F8F002D1CD0200000F095
:101C9000DFFD174B83420BD01900200000F0E0FD60
:101CA0000121200000F0C4FD0123A340114A13606C
:101CB000A400114BE550BFF35F8F0C4B00221A605C
:101CC00086F3108870BDA2000B4B0021D150012279
:101CD000A2400A490B7893430B700549200000F09D
:101CE000E9FD0021200000F0A3FDE4E7280100D079
:101CF0008D1B001038600540A4100020D51900206D
:101D0000F0B5DE4600B584B00400150001921E0057
:101D10000293FFF78DFF03958E4202D844D185428E
:101D200042D9EFF3108B72B6224B1B68002BFBD00D
:101D3000BFF35F8F0125A5401F4B5D63EFB21F49C5
:101D40000A783A430A70221D92000199D150A400EA
:101D50001B4A0299A1501B6A2B4212D1164B1B6CD5
:101D60002B4208D00020BFF35F8F124B00221A6075
:101D70008BF3108819E0134B134AB221134800F07B
:101D800025FBFFF755FF8E420CD802D1039B8342FF
:101D900008D8094B1D625D63084A1378BB43137072
:101DA0000120E0E70020DEE7012004B080BCBB4654
:101DB000F0BDC046280100D000400540D5190020E4
:101DC000BC1900202CF900108CF9001050F90010FB
:101DD000EFF3108C72B60B4B1B68002BFBD0BFF3DC
:101DE0005F8F01238340084A136208490A789A43A7
:101DF0000A70BFF35F8F034B00221A608CF31088C8
:101E00007047C046280100D000400540D519002089
:101E100010B51F2905D8064B9C4661448900016016
:101E200010BD044B044A0A21044800F0CFFAC04612
:101E300040000034A8F900100CFA0010D4F900108A
:101E400010B50400FFF78AF901002000FFF7E0FF5A
:101E5000FF232371BFF35F8F10BD10B5FFF7D8FFCD
:101E6000BFF35F8F10BD10B504000120FFF784F9A8
:101E700001002000FFF7F1FF10BD000010B50029A0
:101E80001ED0037B99421BD84B005B18033B0468B0
:101E9000A4466344002919D0002A1DD0914221D0C4
:101EA000002A25D0047BA24222D804685000801862
:101EB000033820188170197800291FD11A7010BDBD
:101EC000104B114A4D21114800F080FA104B114A75
:101ED00053310E4800F07AFA0F4B0E4A54210B484A
:101EE00000F074FA0D4B0B4A5521084800F06EFAC9
:101EF000044B054A4D21054800F068FA41701A70FC
:101F0000DDE7C046D0F6001090FB0010ECF60010A4
:101F100030F700107CFB00103CF7001048F7001071
:101F200070B506000D001400002914D0002A14D04A
:101F3000806873689847002806D022002900300086
:101F4000FFF79CFF280007E02A0021003000FFF780
:101F500095FF200000E0100070BD0800FCE70000C5
:101F600010B50023437301338373037BC3730121D3
:101F7000037B8B4215D9CBB2002B0CD0027B934252
:101F800009D85A00D218033A0468A44662440133BF
:101F900053700131ECE70C4B0C4A4D210C4800F01A
:101FA00015FA002B09D09B4207D801685A00D318B4
:101FB000033BCB1800225A7010BD034B034A4D213E
:101FC000034800F003FAC046D0F6001090FB001062
:101FD000ECF60010F8B505000F00160010210120E6
:101FE00002F0EEFD0400057347600321280002F0B3
:101FF000E7FD2060A6602000FFF7B2FF2000F8BDDB
:1020000070B50400081E00D170BD002934D0237BB8
:10201000994231D84B005B18033B226894466344D5
:102020005A78002AF0D02DD0237B9A422AD8530028
:102030009B18033B21688C4663445D7800215970EE
:10204000002825D0237B984222D843001B18033B4D
:1020500021688C4663440021597001002000FFF77D
:102060005FFF060029002000FFF7CAFF02003100D1
:102070002000FFF755FFC7E7084B094A4D210948E3
:1020800000F0A4F9054B064A4D21064800F09EF9E0
:10209000024B034A4D21034800F098F9D0F6001096
:1020A00090FB0010ECF6001070B505000C00160057
:1020B000002928D02DD0037B99422AD84B005B18E9
:1020C000033B0268944663445A78002A27D19A78E1
:1020D000002A2AD11978FFF793FF0300002E03D1BD
:1020E000EA7B002A27D1EC73002B37D1002C49D092
:1020F0002B7B9C4246D82B6861000C19033C1C19B1
:102100000023637070BD224B224A3321224800F025
:102110005DF9224B224A4D21224800F057F9224B0B
:102120001C4A35211C4800F051F9204B194A362130
:10213000194800F04BF9002A0AD0297B8A4207D8B7
:1021400051008A18033A29688C4662445470CAE7E1
:10215000124B134A4D21134800F038F9002B0BD0D5
:102160002A7B934208D843001B18033B2A689446F5
:10217000634400229A70B9E7084B094A4D21094887
:1021800000F024F9054B064A4D21064800F01EF9DF
:10219000ACFA001068FB0010B4FA0010D0F6001082
:1021A00090FB0010ECF60010E8FA001010FB001095
:1021B00070B504000A00457B2900FFF775FF6073C6
:1021C000280070BD70B50400002967D0437B8B42A6
:1021D0000ED0002911D0037B99420ED84B005B181A
:1021E000033B0268D0188378002B0CD1002056E006
:1021F0000021FFF7DDFF012051E0294B294A4D2145
:10220000294800F0E3F8002B20D0227B93421DD810
:102210005A00D318033B2268D2182568EB5C8B4226
:102220001AD0002B1BD0227B934218D85A00D31807
:10223000033B2268D21853788B4216D0002BF0D182
:102240001A4B1B4A63211B4800F0C0F8144B154A77
:102250004D21154800F0BAF84378137007E0104B91
:10226000104A4D21104800F0B1F843785370002314
:102270008370437000222000FFF716FF0200617B8D
:10228000814205D02000FFF74BFE6073012006E07D
:10229000094B074A6921074800F098F8002070BDF3
:1022A000D0F6001090FB0010ECF6001034FB00108C
:1022B0005CFB0010B4FA00103CFB001070B5234B1F
:1022C000234A1A60234B244A1A60244B9A68224BF3
:1022D0009343FAD1224C01E008CC9847214B9C4211
:1022E000FAD300F01DF91B4B1F4A1A601B4B9B6869
:1022F000DB43DB01FAD11D4B40229A675A671A670C
:10230000DA661B4C03E02000FFF79AFD0834194BF6
:102310009C42F8D3184CA168184DC022280002F046
:1023200061FCA560EFF30383FF221A4200D000BED8
:10233000FEF704FF00F028FCFFF764FA104C01E000
:1023400008CC98470F4B9C42FAD370BD00E0004088
:10235000BFCDFFFF00F00040FE7F3C0000C000400A
:10236000000C0020100C0020FFFFFF0100F00140D6
:10237000F80B0020000C002000ED00E00000002021
:10238000100C0020140C002000BEFDE703000A4AD8
:102390001268002A08D0084A1068C318074A9342F6
:1023A00006D2054A13607047034A05491160F2E7F7
:1023B00001204042F7E7C046181100200000042029
:1023C000D819002010B5FFF7DFFF000010B582B06C
:1023D0000C001900002A0CD0084B002A0BD00192E7
:1023E000009323000200064802F030FD0120FFF7B1
:1023F000CBFF044BF1E7034AF1E7C0469CFB00101A
:10240000ACFB0010A8FB00100FB400B583B0084867
:1024100002F0ECFC049B002B07D005A901911800E9
:1024200002F0F2FC034802F0E1FC0120FFF7ACFFF0
:10243000DCFB0010ECFB0010F8B5D646474680B533
:1024400006000D001700089A934243D3190E180294
:10245000089A002301F0E0FC80467400A419A4004F
:102460002A4B9C4664446368834200D26060331FF9
:10247000DBB29A46012B33D9C0239B012343802230
:1024800012011A60B300224A9958002905D05069F8
:1024900001F07CFC01300138FDD17F0122685740FA
:1024A000E022174080235B0123431F605246012A2C
:1024B00021D980239B012343802212011A604346C5
:1024C0006360B600124B089AF2500120C0BCBA46B5
:1024D000B046F8BD0F4B104A2E211048FFF776FF8B
:1024E000012DC9D1C0239B01234303221A60A36895
:1024F000DB07FCD5D1E72168694003220A401A6056
:10250000A2680123AB401342FAD0D2E7008000401A
:10251000B8100020F0FB001040FC001004FC00107C
:1025200030B583B00C2000F093F8FEF735FE00289C
:102530000DD0002304E09900334A34488850013319
:10254000092BF8D9304B324A5A6203B030BD314BB7
:1025500000229A6700F084F82F4B01221A602D4B5D
:102560005B6C012BFBD12D4B03221A60294B9B6B1B
:10257000012BFBD1C0239B01294A1360294A136018
:10258000294B9A68C0239B019343F9D102240094FC
:102590000633264A0121264800F076F800940523E8
:1025A000244A0121244800F06FF8244B00930022B4
:1025B00002210420FFF740FF214D00952B0000224F
:1025C00001210520FFF738FF104C00942300002262
:1025D00000210720FFF730FF009423000022002194
:1025E0000820FFF729FF0A4B009323000022002157
:1025F0000920FFF721FF00952B0000220021062073
:10260000FFF71AFFA1E7C046B8100020006CDC02FB
:102610001BB70000008000403CB0004030B00040DC
:1026200000E0004000F0004000C00040002F68596A
:102630000080024000389C1C00C00240001BB70014
:10264000405973078000014BC0587047B8100020F4
:1026500080239B000343014AD362704700800540FA
:10266000064BAA2212011A602F22DA60044B054A97
:102670001A60024B5B68002BFBDA70470040024097
:102680000060024000B0FA00F8B5CE46474680B57B
:102690000400894690461D0008AB1F7801235B4269
:1026A0004360002383600C2001F070FB06004B4662
:1026B000236043011B1A9901C91AC900091889012D
:1026C000404601F063FB0200103A98235B009A42F7
:1026D00020D86B1E062B23D87B1EDBB2062B1FD8FF
:1026E000AF4223D843461A09B24225D3A060221D27
:1026F000C0239B01134321221A602268002AFCDABE
:102700002D043F033D43E56008221A60C0BCB94672
:10271000B046F8BD0B4B0C4A1A210C48FFF756FE89
:102720000B4B094A1D210948FFF750FE094B064A89
:1027300023210648FFF74AFE074B034A2721034897
:10274000FFF744FE50FC001024FD00106CFC00104C
:10275000A4FC0010F0FC001008FD0010074B9B6863
:10276000103080001950BFF35F8FBFF35F8F044BB1
:102770000021196082F310887047C04600ED00E028
:10278000240100D010B5091A04394808090B05D1F5
:102790004005400D044B184380B210BD034B044A62
:1027A0008D210448FFF712FE00E0FFFF30FD00100E
:1027B00034FF001040FD001010B5091A04394C0810
:1027C000090B08D14905490D064A11430180064B02
:1027D0002343438010BD054B054A95210548FFF76B
:1027E000F5FDC04600F0FFFF00F8FFFF30FD0010D0
:1027F00008FF001040FD001001238340034A1068C9
:102800001840431E9841C0B27047C04600E100E046
:10281000002904D0034B1860034B18607047034B2A
:102820001860FBE780E200E000E100E080E100E00A
:1028300010B5012383401800FFF7EAFF10BD000028
:1028400001238340014A13607047C04600E200E064
:10285000024B9B6810308000C058704700ED00E0CC
:1028600070B504000D00EFF3108672B60C4B1B68B8
:10287000002BFBD0BFF35F8F2000FFF7E9FF094B70
:10288000984201D0A84205D1320029002000FFF76C
:1028900065FF70BD044B054A71210548FFF796FDA1
:1028A000240100D0CD01001078FD001050FF001071
:1028B00040FD0010F0B5CE46474680B583B0060017
:1028C0000D00EFF3108872B65A4B1B68002BFBD03B
:1028D000BFF35F8F584B9A6834001034A300D75869
:1028E000564B9F4207D0AF4200D1A0E00197544B16
:1028F000FB1A2F2B09D9424639003000FFF72EFF73
:1029000003B0C0BCB946B046F0BD3000FFF774FF5D
:10291000814600213000FFF78BFFBFF35F8FFDF78B
:10292000A2FC002801D084421ED10123019C9C43BB
:102930004349611A8A1093009B1819015B18190208
:102940005B1819045918490089180022A368AB4282
:1029500012D00622A256002A0DDB53009B189B00C2
:102960002200374CE418F1E78E21364B364A4900F5
:102970003648FFF72BFD2200AB4251D106256557A3
:10298000002D39DB6B005B199A002D4B9B189A6860
:10299000A260DA79E27106229A56A2719B795BB243
:1029A000002B10DABD200002A0806B005B199B0099
:1029B000234AD318264A1178997115704946300078
:1029C000FFF736FF97E7201D6B005B199B001C4A41
:1029D0009B181A1D9B88D90A1C2907D15B055B151A
:1029E000023359005118FFF7CDFEDDE7194B1A4AA3
:1029F0009B211648FFF7EAFC00280CD1002A08D0DA
:102A0000FF239371154B9380114B1A78A2711970A3
:102A1000D4E70A4FF8E7201D1149FFF7CDFECDE7B7
:102A20005221104B084AFF310848FFF7CFFC034FF3
:102A300061E7C046240100D000ED00E0CD010010A8
:102A4000180300208CFE001020FF001040FD001035
:102A5000D319002074FE001040FF001000BDFFFFDE
:102A600052030020B0FE001010B5032304009C4365
:102A7000064A9446644422681840C000FC338340F0
:102A80009A43130081400B43236010BD00E400E033
:102A9000F8B5040001250543304BEB1A2F2B2DD838
:102AA000FDF7E1FB002830D0EFF3108172B62C4B1C
:102AB0001B68002BFBD0BFF35F8F284BE31A9E10DF
:102AC000B20092191301D2181302D2181304D318AA
:102AD0005B009B19234A926880001258AA421BD0BF
:102AE0000020032832D84200121892001B4DAA1869
:102AF000927952B29A421FD00130F2E7B7211A4BB5
:102B00001A4A49001A48FFF761FC7221194B174A0B
:102B1000FF311748FFF75AFC124A9268164D1550BC
:102B2000164A1078A0711370BFF35F8F0C4B002210
:102B30001A6081F31088F8BD2E0042001518AD0010
:102B40007519FF27AF710E48A880E9E7C1210D4B29
:102B5000064A49000648FFF739FCC0461803002022
:102B6000240100D000ED00E0B8FE0010ECFE0010E3
:102B700040FD0010E0FE0010CD010010D319002030
:102B800000BDFFFF34FB001010B5002404E08021DD
:102B90002000FFF769FF01341F2CF8D910BD7047E2
:102BA00010B5002802D00B684968984710BD010095
:102BB000002007E083001B185B00501C08601078A1
:102BC000C01830380A681378303BDBB2092BF1D9D2
:102BD0007047F0B5DE4657464E464546E0B583B0F1
:102BE00093461F000C9B9A460D9C0E9B99460F9B8B
:102BF0009B0703D0B8460F00060022E00192A346CF
:102C000088464E46B9460700B44207D2551C4B468B
:102C100041462020B84701342A00F5E73D004F46E1
:102C20005C46019B9B46B1464646B84637002E009F
:102C300007E0013C551C5346185D43463900B04738
:102C40002A00002CF5D135003E0047460F9B9B071C
:102C500007D4100003B0F0BCBB46B246A946A0465C
:102C6000F0BDB0464E46B9462F005D46531BB342F9
:102C7000EFD2541C4B4641462020B8472200F5E7CE
:102C8000F0B5CE46474680B585B0944698460C9D33
:102C90000D9C0EAB1B789946109A119B129EB7079C
:102CA0001CD4002B0CD0F7070AD54F46002F02D1B9
:102CB0000C37374204D0013B02E030272F55013456
:102CC000944201D21F2CF8D9F70707D59C4205D2B0
:102CD0001F2C03D830272F550134F5E7F70615D5FB
:102CE000770505D4002C03D0944224D09C4222D0F6
:102CF0000F9A102A2BD00F9A102A30D00F9A022A3E
:102D000035D01F2C02D830222A5501341F2C05D86B
:102D10004A46002A31D02D222A55013403960293C7
:102D20000194009543466246FFF753FF05B0C0BCCF
:102D3000B946B046F0BD621E012C06D00F9F102F81
:102D400001D01400D4E7023CD2E71400D0E7B20669
:102D5000D1D41F2CCFD878222A550134D1E7B2061E
:102D6000CCD51F2CCAD858222A550134C9E71F2CAC
:102D7000C7D860322A550134C3E7720703D52B2226
:102D80002A550134CAE73207C8D520222A55013412
:102D9000C4E7F0B5DE4657464E464546E0B593B02B
:102DA00081468A46089209931CAB10CB1B789B4640
:102DB0001E9D219B9846002C03D1102342469A4326
:102DC00090468023DB0046461E4042461A4212D0FF
:102DD000002C22D000260EE03033D9B2771C0AAB8B
:102DE00099552900200000F0D1FFAC4216D31F2FC7
:102DF00014D83E0004002900200000F0C7FFCBB229
:102E0000092BE9D94246920605D54121C918C9B214
:102E10000A39C9B2E2E76121F8E727004346069381
:102E2000209B05931F9B049303955B460293019798
:102E30000AAB0093099B089A51464846FFF720FFCA
:102E400013B0F0BCBB46B246A946A046F0BDF0B5F3
:102E5000DE4657464E464546E0B595B00890099186
:102E60000A920B931E9E1F9C20AB1B789B46229BB5
:102E70009946239D269B9A463300234303D1103362
:102E800052469A4392468023DB0057461F405246E3
:102E90001A4219D0330023432DD0002714E03033D9
:102EA000DAB27B1C98460CABDA554A462B00300050
:102EB000210000F0B1FFA5421FD819D043461F2BB7
:102EC0001BD8474606000C004A462B003000210064
:102ED00000F0A2FFD3B2092BE1D95246920605D5E4
:102EE0004122D218D2B20A3AD2B2DAE76122F8E726
:102EF000B145E3D901E00023984653460693259B4C
:102F00000593249B04934B4603935B4602934346ED
:102F100001930CAB00930B9B0A9A09990898FFF751
:102F2000AFFE15B0F0BCBB46B246A946A046F0BD08
:102F3000F0B5DE4657464E464546E0B591B082466E
:102F400089460E9298461A9C07941B9D089522006C
:102F50002B002000290001F0D6F9002800D06FE1F5
:102F600001225242D94B2000290001F0C7F9002864
:102F700000D065E101225242D54B2000290001F02A
:102F8000A7F9002800D05BE100220023079C200065
:102F9000089D290001F09CF9002800D067E1079AFC
:102FA000089B099206938023DB001E9A1A400F9219
:102FB0001E9A1A4201D106231C93099B069A100DF2
:102FC0004005400DC3498C4660441203120B1E009D
:102FD000C14B13431F0001F0A9F9C04AC04B01F0D7
:102FE00035F9C04AC04B01F01FF904000D00002262
:102FF000BE4B3000390001F00EF9BD4ABD4B01F067
:1030000025F902000B002000290001F00DF901F064
:10301000A5F9834601F08AF904000D00B64AB74BC2
:1030200001F014F90022B64B01F0FEF801F096F918
:103030000600B44AB44B2000290001F007F904004F
:103040000D000A96300001F071F9B04AB04B01F062
:10305000FDF802000B002000290001F0DCF804005C
:103060000D0002000B0001F0F1F806000F000A99B4
:10307000A84B9C466144002200230A920B93090549
:103080000B9100210A9122002B002000290001F061
:10309000CBF80C900D9122002B0000208021C90557
:1030A00001F0B9F804000D0000229B4B30003900FC
:1030B00001F0C3F80022994B01F0B6F802000B00B2
:1030C0003000390001F0B9F80022954B01F0ACF85E
:1030D00002000B003000390001F0AFF802000B00D5
:1030E0002000290001F0A0F802000B000C980D99B7
:1030F00001F0A3F80022784B01F096F80A9A0B9B96
:1031000001F0A4F804000D000A940B95099A069B9F
:1031100001F0F4F800280BD001235B429C46E34405
:1031200000227E4B2000290001F087F80A900B91C5
:103130005B466333C62B00D9A0E004241E9B1B050D
:1031400023D5784A784B099E3000069D290001F06E
:10315000CDF8002800D196E00022744B3000290001
:1031600001F0B6F8002800D18DE01C9B5B4500DC27
:1031700086E05A46981A431E1C938023DB001E9A51
:103180001A431E92002400239B461D9B9C4200D3A1
:1031900085E01D1B02231E9E1E401E9A134202D074
:1031A000002C00D000255B46002B07D00A9A0B9B11
:1031B0000998069901F041F8099006910022002330
:1031C0000798089901F084F800286AD1584B1E9A94
:1031D0001340049303951C9B0293099A069B00924B
:1031E000019343460E9A4946504600F0A3F8002C3E
:1031F00036D01E9B9B065BD54527451C43460200E7
:1032000049463800D0475B46DA179B1853400522E1
:103210000592013C0494002203920A3202925A461B
:10322000D00F0190009343462A0049465046FFF7CD
:10323000B0FD002E14D0020057460E9E1D9D3FE0AB
:103240001E9B04931D9B03931C9B0293079A089B50
:103250000092019343460E9A4946504600F06AF8A0
:1032600011B0F0BCBB46B246A946A046F0BD0994D9
:1032700080231B069C466544069594E605245DE77D
:1032800000231C9379E71C9B002B00D17DE70F9B4B
:10329000002B00D179E71C9B013B1C9375E70025AF
:1032A00078E70699802000068446614406918DE700
:1032B0006527A2E7541C434649462020B847220010
:1032C000931BAB42F6D31000CAE7C046FFFFEF7F67
:1032D000FFFFEFFF01FCFFFF0000F03FFB799F5075
:1032E0001344D33FB3C8608B288AC63F0000F83F21
:1032F00061436F63A787D23F71A379094F930A4057
:103300000000E03F1655B5BBB16B0240EF39FAFE45
:10331000422EE63FFF03000000002C400000244046
:10332000000018402D431CEBE2361A3F80842E41EA
:10333000FFF7FFFFF0B5DE4657464E464546E0B57F
:1033400095B00690079193469946209F1E9A1F9B21
:103350001000190000F0D7FF002831D1012252429D
:10336000BF4B1E981F9900F0B3FF002837D10122F0
:103370005242BC4B1E981F9900F0C0FF00283DD15F
:103380000022B94B1E981F9900F0B8FF002850D1B9
:103390000022B64B1E981F9900F09AFF002848D1D2
:1033A000002200231E981F9900F092FF002850D1A0
:1033B00000239846229B5B0500D4B6E0002458E029
:1033C000229B0393219B029303230193A84B009319
:1033D0004B465A4607990698FFF7FBFB0EE1229BE6
:1033E0000393219B029304230193A24B00934B462A
:1033F0005A4607990698FFF7ECFBFFE00423229A50
:103400001A4022990B4210D09B4B002A0FD0042265
:103410002299039121990291019200934B465A46B9
:1034200007990698FFF7D5FBE8E0944BEDE70322F8
:10343000EEE7229B0493219B039302971E9B1F9C04
:10344000009301944B465A4607990698FFF770FD82
:10345000D4E01E9A1F9B0020002100F0DCFE1E908D
:103460001F9101239846A5E70CAB30221A55013F66
:1034700001341F2C01D8092FF6D81E981F9900F08F
:103480006DFF050000F052FF02000B001E981F990F
:1034900000F0C1FEFA007A4B9B181A685B680A922A
:1034A0000B9300F0D3FE0890099100F07BFF06001B
:1034B00000F038FF02000B000898099900F0ABFEFD
:1034C0000890099100226F4B00F018FF00282ED0C1
:1034D0000136300000F026FF02000B000A980B991D
:1034E00000F0FCFE002801D001350026002F2CD171
:1034F000280000F01BFF02000B001E981F9900F02F
:103500008AFE06000F0000225E4B00F0E1FE00285C
:1035100046D100225B4B3000390000F0EFFE00285E
:103520003ED1EB073CD501353AE0062746E70022BD
:10353000544B0898099900F0CBFE0028D6D1002EF4
:1035400001D0F307D2D50136D0E7AA461F2C11D8F7
:10355000013F0A21300000F019FC651C30310CAB32
:1035600019550A21300000F011FC092E0ED9060071
:103570002C00EBE755461F2C0CD87B1E002F09D0E2
:103580000CAA302111551F000134F4E72B005546D9
:103590001C00F0E71F2C03D80CAB2E221A55013467
:1035A0001F2C10D80A21280000F0C4FB661C303103
:1035B0000CAB19550A21280000F0BCFB051E01D0F8
:1035C0003400EDE734000323229A1340012B1CD072
:1035D0001F2C06D84346002B32D00CAB2D221A5597
:1035E0000134229B0393219B029301940CAB009323
:1035F0004B465A4607990698FFF7EBFA15B0F0BC10
:10360000BB46B246A946A046F0BD219B002B13D075
:103610004346002B02D10C3313420FD0219B013BB8
:103620002193190003E00CAB30221A5501348C426F
:10363000CED21F2CF7D9CBE72199F8E72199F6E7ED
:10364000229B5B0704D50CAB2B221A550134C8E72B
:10365000229B1B07C5D50CAB20221A550134C0E7AD
:10366000FFFFEFFFFFFFEF7F65CDCD4165CDCDC102
:1036700078FF00107CFF001070FF00106CFF00103E
:10368000680101100000E03FF0B5DE4657464E46A7
:103690004546E0B593B082468B469046119300298B
:1036A00000D1EBE200275546119B1878002800D185
:1036B000E7E2252809D07C1C43463A005946A84732
:1036C000119B013311932700EEE70133119300247E
:1036D000119A11780B00203BD8B2102803D8830030
:1036E000D048C3589F460B00303BDBB2092B2CD986
:1036F0002A292FD000230A93119B1A782E2A39D019
:1037000000239A46119A1378683BD9B2122976D8C9
:103710008B00C549CB589F4601231C4301321192AF
:10372000D6E702231C4301321192D1E704231C4344
:1037300001321192CCE708231C4301321192C7E7F2
:1037400010231C4301321192C2E711A8FFF72FFA90
:103750000A90D1E71C9B1A1D1C921868002804DBF4
:103760000A90119B01331193C6E702231C43434285
:103770000A93F6E78022D20014435A1C11925A7819
:103780001300303BDBB2092B04D92A2A07D00023CF
:103790009A46B7E711A8FFF70AFA8246B2E71C9BE0
:1037A0001A1D1C921868002804DB8246119B013305
:1037B0001193A7E70020F8E780235B002343511C07
:1037C000119152786C2A01D01C0018E0C0239B0094
:1037D0001C430131119112E080232343511C1191AC
:1037E0005278682A01D01C0009E0C0231C43013133
:1037F000119104E080235B001C4301321192119B64
:1038000018780300253BDAB2532A00D92CE2930042
:10381000864AD3589F4680239B001C430132119255
:10382000EDE780235B001C4301321192E7E7782823
:1038300009D0582838D06F2838D0622838D01023C3
:103840009C430A2600E01026582833D0692803D06C
:10385000642801D00C229443630501D501229443CE
:1038600069282AD0642828D0A30500D59FE0E30565
:1038700000D5B8E0630600D4CAE01C9A111D1C9163
:103880001168FF220A4005940A9B04935346039350
:10389000029600230193009243463A0059462800BD
:1038A000FFF777FA070027E01026CDE70826CBE7D9
:1038B0000226C9E720221443C8E7A30520D4E30564
:1038C00050D4630666D51C9A111D1C911168FF2205
:1038D0000A40D317D118594005940A9B04935346C4
:1038E00003930296D20F0192009143463A00594643
:1038F0002800FFF74EFA0700119B01331193D3E61E
:103900001C9BDA1D07218A43110008311C911168A4
:1039100053689C46DB170C930D930C9A0D9B10007B
:1039200048400E90624653400F930E980F990C9AA0
:103930000D9B801A99410E900F9108940A9B079352
:10394000534606930496002305936346DA0F0292CA
:103950000090019143463A0059462800FFF777FA54
:103960000700C9E71C9A111D1C911268D317D118C2
:10397000594005940A9B0493534603930296D20F31
:103980000192009143463A0059462800FFF701FA98
:103990000700B1E7230605D51C9A111D1C910023D1
:1039A000D25E96E71C9A111D1C91126891E71C9B30
:1039B000DA1D07218A43110008311C9108940A9BE3
:1039C00007935346069304960023059302931368C6
:1039D00054680093019443463A0059462800FFF783
:1039E00036FA070088E71C9A111D1C9105940A9B62
:1039F00004935346039302960023019313680093A4
:103A000043463A0059462800FFF7C3F9070073E719
:103A100023060DD51C9A111D1C9112681204120C5C
:103A200031E7C04684FF0010C8FF001014000110E9
:103A30001C9A111D1C91126825E746281AD01C9B60
:103A40000733072293431A0008321C9204940A9AFF
:103A50000392524602925C681B68009301944346AD
:103A60003A0059462800FFF765FC0700119B013317
:103A7000119319E620231C43E1E7672801D047286A
:103A800002D180231B011C43452801D0472801D1C6
:103A900020231C431C9B0733072293431A00083240
:103AA0001C9204940A9A0392524602925C681B6824
:103AB0000093019443463A0059462800FFF738FA2C
:103AC0000700119B01331193EEE502231A002240F7
:103AD000924623421FD001241C9B1A1D1C927A1C63
:103AE0009146187843463A005946A8475346002B5A
:103AF00016D1119B013311934F46D5E5561C434611
:103B000059462020B847230032005C1C9D42F5D85E
:103B10003D001700E0E701233A002F000A9DF4E77B
:103B20004A46A9460A9D06E0571C434659462020AE
:103B3000C84734003A00661CA542F5D84D46914668
:103B4000D7E71C9B1A1D1C921B6899465346002BF5
:103B500000D1013B4E4601E0013613003278002AC5
:103B600002D05A1E002BF7D14B46F21A1092802336
:103B7000DB0026001E401C4203D0524501D95346AB
:103B8000109302231A0022400B92234205D03A00E0
:103B900037004C46A946554620E03A00109B5F4648
:103BA000B3462E0006E0551C434639002020B0479E
:103BB00023002A005C1C0A999942F4D835005E461D
:103BC000BB46109437004C46A946554606E01D00FA
:103BD0000134561C43465946C84732002078002815
:103BE00004D0002FF4D06B1E002DF0D117004D46ED
:103BF0000B9B002B03D1119B0133119354E50A9FBA
:103C0000109B06E0561C434659462020A847230037
:103C100032005C1C9F42F5D81700ECE721231C43BF
:103C20001C9B1A1D1C921B68009305940823049387
:103C300053460393102302930023019343463A0013
:103C400059462800FFF7A5F80700119B013311938F
:103C50002AE57C1C43463A0059462520A847119B7B
:103C60000133119327001FE57C1C43463A00594657
:103C7000A847119B01331193270015E50A4B9A467B
:103C800010E5AA46474502D343465A1E00E03A00D3
:103C9000434659460020D047380013B0F0BCBB461D
:103CA000B246A946A046F0BD9F2B001000B585B0D6
:103CB000029003910121009313004A4202A9024895
:103CC000FFF7E2FC05B000BDA12B00100148042164
:103CD000014B184760030020FD3C001010B50100A7
:103CE00018231B8814221088984710BD10B50100B6
:103CF00018231B8816221088984710BDF0B5C646B9
:103D000000B507000E0000250123984600E00135AC
:103D1000B5420AD2AC003C192068FFF7DFFF2060F3
:103D20000028F4D100239846F1E7404680BCB8460D
:103D3000F0BD0000144A936F9B0815D29066D166BF
:103D4000002905D0FFE7FFE7FFE7516F106F7047CD
:103D500004B580210906C2175140002800D0C8438D
:103D600004F0AAF8002104BD936F5B08FDD3F0B501
:103D7000946ED56E576F166FFFF7E0FF9466D566A9
:103D800057671667F0BD0000000000D0134A936F1C
:103D90009B0813D210665166002905D0FFE7FFE7A4
:103DA000FFE7516F106F704704B5002801D0002065
:103DB000C04304F081F8002104BDC046936F5B0846
:103DC000FDD3F0B5946ED56E576F166FFFF7E2FF17
:103DD0009466D56657671667F0BD0000000000D0F6
:103DE00094464E4A926F9208624601D230E0C04635
:103DF000F0B54A4EB56F6D08FCD3346E756E776FB3
:103E0000366F00F025F89446444A146655665767A5
:103E100016676246F0BDC0469446404A926F9208CB
:103E2000624601D258E0C046F0B53C4EB56F6D0811
:103E3000FCD3346E756E776F366F00F04DF8944694
:103E4000364A14665566576716676246F0BDC04627
:103E5000002B24DB11D000293EDA00B5C9434042D3
:103E600000D1013100F038F8C943404200D101319E
:103E7000DB43524200D1013300BD002AEBD10028C0
:103E800001D1002905D00020C90FC90701D1C043C5
:103E9000410800B504F008F80022002300BD00B579
:103EA00000290ADBDB43524200D1013300F014F851
:103EB000C943404200D1013100BDC943404200D155
:103EC0000131DB43524200D1013300F005F8DB43FE
:103ED000524200D1013300BD002923D1002B18D15B
:103EE000002A0CD0BC460D4F38667A6600210023AC
:103EF000FFE7FFE7FFE77A6F386F674670470028F4
:103F000001D00748010000B503F0CEFF00220023D6
:103F100000BD02000B00002000217047000000D00F
:103F2000FFFFFFFF002B00D0BDE0130C26D1002ABD
:103F3000E7D080B4104F39667A66FFE7FFE730B408
:103F4000040C7B6F396F1B0423433B66FFE7FFE7DD
:103F5000FFE7C04684B27B6F3D6F1B0423433B6683
:103F6000FFE7FFE7C04600232C042D0C7A6F386F63
:103F700000196941B0BC7047000000D0F0B594460C
:103F80000025140E01D112020835140F01D11201BF
:103F90000435940F01D192000235D40F01D15200A3
:103FA0000135D40B0134254F7C66254C3C660E0C44
:103FB00093B2FFE7FFE7FFE73C6F6643360C7703FA
:103FC000BE467343DF0B5B04C01AB941130C734345
:103FD000DB18C91ACE086643360CB64493B2734355
:103FE0001F0F1B01C01AB941130C73431F0B1B0594
:103FF000C01AB941860D8F023E436643360C092D27
:1040000024DB520A7243801A7703460A6643360C51
:1040100016235B1BDE40DF40BF1964466643821BEC
:104020007046043506330100D940A840C01900D3BA
:104030000131A24206D20023F0BD0000000000D0F2
:10404000FFFFFFFF121B0130F3D3F1E709277F1BAE
:10405000FE406446A2B27243801A00D20139220C9B
:104060007243130C1204821A99410B0070460435F6
:1040700013370100F940A840801900D30131002B0B
:1040800002D1A2420AD2F0BD013000D30131121B8D
:10409000FAD2013BF8D1A24200D2F0BD013000D3E8
:1040A0000131121BF7E7F0B51C0C00D080E00CB416
:1040B00000251C0A04D11B02160E334312020835D8
:1040C0001C0B04D11B01160F3343120104359C0B4A
:1040D00004D19B00960F334392000235DC0B02D1D2
:1040E00092185B4101351C00971864410134464F1A
:1040F0007C66464C3C660E0CFFE7FFE7FFE7C046D8
:104100003C6F6643360C7703BE4697B27743C01BBD
:1041100000D20139C01B00D201399FB27743C91BBD
:10412000C91B170C77437E04FF0B801BB941CE08D7
:104130006643360C0C2D33DBB644120B1F053A4395
:104140001B0B97B27743C01B00D201399FB2774354
:10415000C91B170C77433E043F0C801BB941860DE9
:104160008F023E43664329277F1BFE400C3D774666
:10417000AF40BF1930BCA2B2ABB272437343801AD6
:104180009941220C7243130C1204801A99410200C7
:104190000B000137001BA941F9D2781E0021F0BDA8
:1041A0000C277F1BFE4077467F0BAF40FF19E0E7EF
:1041B00000245D1C07D0144F7D663966FFE7FFE7DA
:1041C000FFE7FFE73C6F95B29EB265436643401B35
:1041D000B141150C1E0C6543664336042F0C3E435B
:1041E0002D04401BB141994204D202000B00200073
:1041F0000021F0BD01D19042F7D3801A99410134DA
:104200009942F2D3F6E70000000000D0FFFFFFFF65
:1042100048404140484018B4114B5B68FC4601934C
:1042200008BD04DFAF44001018B40D4B1B68FC46FA
:10423000019308BD00DFB944001018B4084BDB68D7
:10424000FC46019308BD0CDF7147001018B4044B05
:104250009B68FC46019308BD08DF1546001000006E
:10426000B0170020FFB550404240504059404B40ED
:10427000594000E0FFB5154F4C00640D03D0BC421F
:1042800004D10C0314D80020090D09055C00640D4D
:1042900003D0BC4204D11C030AD800221B0D1B050D
:1042A00001264B4009D44B4003D58B4200D18242BA
:1042B000FFBD9942FCD19042FFBD0B43DB18034385
:1042C0001343F5D0C9434918FFBD0000FF070000A4
:1042D00000B5FFF7CFFF804100BDC04600B5FFF736
:1042E000C9FF01D9002000BD012000BD00B5FFF7C6
:1042F000B9FF01D9002000BD012000BD00B5FFF7C6
:10430000B1FF804100BD012040054A00121804D8C9
:104310005A00121801D80020704701207047002071
:10432000704700000021002805D17047C1174840A0
:10433000401AFAD0C90713B5064B1B6898470CBC46
:10434000441CA2401005120B0349091B090519431F
:10435000114310BDB01800201F04000010B54C0020
:10436000620D8023D218DB00D21A5B057E2A10DD95
:104370009E3A13DACC170903490819435242D14037
:10438000640001341532202A05DAD0400843604326
:1043900010BD002010BD0846604310BDC80FC018F6
:1043A000013810BD18B4044B5B6AFC46019308BD8C
:1043B00024DF9D4900100000B017002070B51323C2
:1043C0001C78012C0FD0012C0FDC022C02DC1D4AC2
:1043D0001D4B9A6470BD99001A481B4A88500133DE
:1043E0001F2BF8D9EFE70023FAE71848FFF77EFC08
:1043F00005001748FFF77AFC023803789B007F2BF3
:1044000019DD80222900104800F0ECFB022CDCD1E1
:10441000104B1A88B5231B029A4209D10E4B1A88F9
:104420000E4B9A4204D10E4B1A880E4B9A42CCD0B6
:104430000020FDF7E9FF0C4B0C4A30210C48FDF73A
:10444000C5FFC04675440010B0170020534400005B
:104450005346000054380000D83800004946000098
:104460009C38000059460000B80101105C020110A0
:104470001802011007B56046002800D100BE01886F
:104480000A0A0230DF2AFAD1C9B2820804D30288AC
:1044900040880004104300E00068024A5050039036
:1044A00007BD0000B01700200FB403BC0CBCF0B572
:1044B0000124E407634000E0F0B50C0DCF0F661E49
:1044C0003605891B640503D3C943404200D301313B
:1044D000640D03D0661CF60A07D0E41B00207F00A1
:1044E000791C89078912803C24031D0DDF0F6E1E85
:1044F00036059B1B6D0503D3DB43524200D30133CA
:104500006D0D03D06E1CF60A07D0ED1B00227F0054
:104510007B1C9B079B12803D2D032F1B661B58D4D1
:10452000A446202E46DA20371400BC401D00BD40B2
:10453000F24033412A4380185941CB0F05D0C9437B
:10454000C043002264425041514162464D0D28D182
:104550000D0D07D100281FD0241940414941013ACF
:104560000D0DF9D0640006D3013000D30131002CC9
:1045700001D140084000013A0BD4941CE40A04D154
:1045800012051144DB071944F0BDD907204B19432C
:1045900000E0D9070020F0BD0029DDD1002CDBD1DF
:1045A000F0BD0132C6074008CD0728434908002E58
:1045B000E1D0D9E73C2E29DA203E40371400BC4038
:1045C00000D00124F24014431A00BB401C43D3170F
:1045D000ACE7AC46202F08DA20360400B4400D00CA
:1045E000B540F84039412843A5E73C2F0CDA203F7D
:1045F00040360400B44000D00124F84004430800D1
:10460000B1400C43C117EAE710001900002494E7F9
:104610000000F07FF0B50C0D661E3605891BE60A1A
:104620006405640D02D0651CED0A04D00020012150
:104630000905803C2403A4461C0D671E3F05DB1BB7
:10464000E70A6405640D02D0651CED0A04D000225F
:1046500001231B05803C24037740644497B484B253
:1046600096B27443070C7E43150C6F4380B26843C7
:10467000361802D3012000043F183004350C00190D
:104680007D41844688B29AB250430C0C62431F0CA1
:104690007C438EB27E43921902D301263604A419BC
:1046A0001604170C3618674101BC81B29AB2514307
:1046B000040C62431B0C5C4380B25843121802D3B3
:1046C0000120000424181004130C401863412D1815
:1046D0005E410020474106BC88B293B258430C0C9F
:1046E0006343120C544389B251435B1802D3012136
:1046F0000904641819041A0C091862416D1856410E
:104700000020474118BCF902720D1143F0026A0DF6
:104710001043ED020A0D03D16D1940414941013B9F
:10472000124E9B1B7600B3420ED26D0007D30130B0
:10473000002671416646354301D1400840001B0503
:10474000C918E4072144F0BD0BDA013306D101306A
:1047500004D101314F0D01D04908F2E7E1070020F3
:10476000F0BD013631050020EBE70000FF0300003B
:10477000F0B51C0D671E3F05DB1BE70A6405640DE1
:1047800002D0661CF60A04D0002201231B05803CDF
:104790002403D0252D060026F6432E661E096E66DC
:1047A000CE0FF619B44649004F0D02D07E1CF60A12
:1047B00003D000200021403F3F033E1BB600B4441D
:1047C000013F7F05C91B49082E6F013676089C0200
:1047D000950D25437543ED137543AD1301356D10EC
:1047E000F603761B0CB4CC02450D2C43A2B2B3B237
:1047F0005A43270C7B43350C6F43A4B26C431B19FF
:1048000002D3012424043F191C041D0CA4187D416B
:1048100024196D41009A91B2ACB26143170C7C43EC
:104820002B0C5F4392B25A43A41802D30122120404
:10483000BF182204230C52187B41019C6C431B19A6
:10484000520ED9010A434401A01A81B2B2B25143B7
:1048500003145A43360C734387B27743D617D219E1
:1048600000277E4136049B191704160C7F185E4101
:104870007316ED18F301002680337541A90F06D198
:104880006400690AE8055B0A184309D22FE0042294
:10489000944480337541A90AA8059B0A184326D37E
:1048A000404149412404009A019B0D005543641B7B
:1048B0004343E41A95B286B27543170C7E43030C4A
:1048C0005F4392B25A43B61802D301221204BF18B2
:1048D0003204330C52197B4152429C41002C02D4C9
:1048E0000022013051414008CA071043490802B074
:1048F0006246D7079210084BD218084B9A4203D24F
:1049000012058918C919F0BD0020002A01DC390000
:10491000F0BD01331905F5E7FD030000FE070000B7
:10492000624618CA944600291ADAC01861415B46EB
:104930003B415C46B4405246FA40224344464D4611
:1049400062416B41904699462B46B3403D41FC4045
:104950001C4352465B46A241AB4192469B46704780
:10496000C01AA1414B463B414C46B4404246FA4036
:10497000224354465D4662416B4192469B462B461C
:10498000B3403D41FC401C4342464B46A241AB4133
:10499000904699467047002000217047002200B5DC
:1049A000203200F004F8080000BD000000220B15C2
:1049B000F1D410B5944600F02FF81414013400DA45
:1049C0000021CB17134C20476244343A0CD40C2AF4
:1049D00007DA04009140904052422032D4402143F3
:1049E00010BDD843D94310BD203207D40C469440A3
:1049F000524220321141D040204310BD0800C91757
:104A0000203203D452422032104110BD1800190048
:104A100010BD0000C94900100A0DCC0F531E1B0524
:104A2000C91A520503D3C943404200D30131520D84
:104A300003D0531CDB0A07D0121B00206400611C4A
:104A400089078912803A1203014BD21A704700007D
:104A5000FF03000051434343C9188C46110C83B235
:104A60004B4310B4040C614392B280B25043624392
:104A70001C041B0C001910BC59411304120CC01863
:104A8000514161447047000070B513231D782A48D6
:104A9000FFF72CF90400012D11D0012D09DDA31E13
:104AA0001B789B007F2B40DD80222100234800F0F3
:104AB00099F82348FFF712F9224B186070BD542271
:104AC00001001E4800F08EF81F4B1A881F4B9A42B7
:104AD0001CD1A7239B011A881D4B9A4216D11D4B4E
:104AE0001A881D4B9A4211D11C4B1A8894239B01A2
:104AF0009A420BD11A4B1A881A4B9A4206D11A4B7A
:104B00001A681A4B9A4201D1152307E01848FDF79D
:104B10007BFC99001748094A885001331F2BF8D9AC
:104B2000144A064B1A62DA61B7E7134B134A422163
:104B30001348FDF74BFCC04653460000B418002054
:104B40004C330000B0180020EE290000C40F000014
:104B5000C20D0000962B0000C0B50000182B00000D
:104B6000CC2A000010B50000FC2C000051ED876439
:104B7000A8FB0010854B001070020110E402011028
:104B8000A402011007B56046002800D100BE0188CC
:104B90000A0A0230DF2AFAD1C9B2820804D3028895
:104BA00040880004104300E00068024A505003901F
:104BB00007BD0000B418002010B502F01BFD10BDA9
:104BC00010B502F0DDFC10BD01480421014B18476F
:104BD00070030020FD3C0010014B1B6818470000CB
:104BE00070030020014B5B68184700007003002031
:104BF000F8B507000D001600437C002B02D00024FE
:104C000000200CE003681100280098472DE03B7C51
:104C100010E0022115483B689847601C0134B442FB
:104C200014DA002CF3DD2B19013B1B780D3B5A42A3
:104C30005341DBB22A5D0A2AF0D1002BEED1A0420B
:104C4000E7DA211A28183B689847E2E7B04203DA0E
:104C5000311A28183B689847002E06DDAD19013D32
:104C60002B780D3B5A4253413B74F8BD4803011069
:104C700070B505000368002B16D00C4B1C6805E0CE
:104C8000290004C92000FFF7B3FFE468002C09D015
:104C90002368002BF9D0064B1B68002BF0D0A342F1
:104CA000F3D1EDE700232B6070BDC0460C1100204E
:104CB0001411002070B505000C000B68802B05D086
:104CC00021684B1C23606418257170BD0800FFF734
:104CD000CFFFF5E710B582B0D0231B061C6801A9F1
:104CE000064803F0F1F8002806D1019BA34203D047
:104CF000024803F001F9012002B010BDF80B0020BA
:104D000010B5024803F0C8F810BDC046F80B0020EB
:104D1000F0B5C64600B582B006000D001700FFF7DB
:104D2000D9FF80466B1C02D0184B1C6805E0300090
:104D300002F04CFF0500F7E7E468002C18D0236868
:104D4000002BF9D0124B1B68002B01D0A342F3D1EA
:104D50002A0031002000FFF74BFF002FECD06B46FC
:104D6000D91D0A230B7001222000FFF741FFE3E762
:104D70004346002B06D16B1E9D41E8B202B080BCB9
:104D8000B846F0BDFFF7BCFFF5E7C0460C110020A8
:104D9000141100200C4B1A68130001E01A00DB68A4
:104DA000002B08D08342F9D1002903D1DB68D360FE
:104DB0000023C36070470029FCD0002A01D0D060D6
:104DC000F8E7014B1860F5E70C11002010B5064B11
:104DD0001C6801E09847E468002C03D06368002B4E
:104DE000F8D1F8E710BDC0460C11002070B50500E1
:104DF00002F0ECFE0400012201002800FFF788FF0A
:104E0000FFF7E4FF200070BD70B5A2B004000E00F3
:104E1000FFF760FF05008422002101A8FFF7DCFEF8
:104E20003300220001A90848FEF740FF040001A852
:104E3000FFF71EFFFFF7CAFF002D02D1200022B0AE
:104E400070BDFFF75DFFF9E7B54C00100FB400B57A
:104E500083B004A901C90191FFF7D6FF03B008BCD4
:104E600004B0184710B500F0BBF810BD30B583B0E2
:104E700005000C0001A9184803F026F8002808D105
:104E8000D0231B061B68019A9A4221D0124803F0D6
:104E900033F8002001F0E4FD002807D10324644228
:104EA0000D4802F0F9FF200003B030BD002001F0F2
:104EB000FBFD002802D103246442F1E7220029000F
:104EC000002001F001FE041EEAD103246442E7E75A
:104ED00003246442E7E7C046B419002010B500215E
:104EE000054802F0F1FF002800D110BD01F064FB7D
:104EF000014802F0D1FFF8E7B4190020F0B5C6462A
:104F000000B582B080460D0001A92E4802F0DCFFFA
:104F1000002808D1D0231B061B68019A9A420FD0A3
:104F2000284802F0E9FF002001F09AFD002847D14F
:104F3000254B0020002118605960224802F0ACFF88
:104F400002B080BCB846F0BD01F036FB002001F095
:104F5000D3FD002001F084FD0028EED0002001F0F8
:104F600049FE00281DD0AC42E7DA2E1B002001F0DC
:104F700041FE0200864200DC3200002AE4D04346B3
:104F80001919002001F01AFE060001F015FB00209F
:104F900001F0B2FDA419FCF74BFE0B4B18605960F1
:104FA000E1E7FCF745FE084B1E685F68074A0023EF
:104FB00092197B419942C0D8D5D19042D3D9BCE750
:104FC0000024D0E7B4190020180C002020A107000D
:104FD00010B51F20FDF734FCFA208000002110BD21
:104FE00070B584B01D4B1B7802F046F81C491F2099
:104FF000FDF736FC01211F20FDF71AFC1948FCF7CC
:105000001FFFFCF7B5FB0600FCF712FE04000D00C5
:105010000100FA229200002312196B419D4202D82E
:1050200004D1914202D901225242D31701210291A7
:10503000002101910C4900913000FCF7F3FB0400C2
:10504000631E9C41E4B2002802D1200004B070BD70
:1050500001210648FFF79EFEF7E7C04670090110E0
:10506000DD4E0010B4190020D14F00108003002045
:1050700000487047EC03011000487047A00301107E
:1050800010B500280BD10F4B0F4A5A800123013372
:105090005B00C022920013430A48038010BD04281D
:1050A0000ED88000094BC4580023122BEFD8E25CC5
:1050B000002AECD00133590002484252DBB2F4E737
:1050C0000020EBE7E41000200904000000040110B8
:1050D0007F220240C3093420584368235343C01839
:1050E000014BC0187047C0461C11002010B582B09B
:1050F00001AB084A1A80002408E001AB185DFFF7F5
:10510000E7FF01234371002303750134012CF4D917
:1051100002B010BD0080FFFF10B5C36A402B00D85D
:10512000402316490A680261D3180B60990604D01F
:105130003F218B43403311490B60104B19688B069C
:1051400010D10F4B5A404B40802149018B420FD860
:105150003023C35C9B061A43A0231B061A438368B3
:105160001A6010BD074B084A59210848FDF72EF96F
:10517000074B054A5B210548FDF728F99C170020DD
:1051800000001050140401106805011044040110BF
:105190009404011070B504007F2008404EB2CD0980
:1051A00021716570F143C90FE170A07000281BD117
:1051B00001216171012B19D0402A1FD8E2623022EF
:1051C000A354002D1ED0C3001B4A94466344E360E1
:1051D000E36800221A60A378002B19D1A360174B53
:1051E00023610123237070BD0021E2E78021C90003
:1051F0008A42E3D311001248FDF706F91100104866
:10520000FDF702F9C3000F4A94466344E360DFE709
:10521000002E09DB0138C0000B4B9C466044A060A7
:105220002000FFF779FFDCE70138C000074B9C4600
:105230006044A060F4E7C0468000105000011050A8
:10524000C8040110840010500C00105008001050C9
:1052500070B504000D001600FFF73AFF33002A0076
:105260002100FFF797FF70BDF0B5CE46474680B5E9
:1052700083B0254B9F6D0026012508E0234B244A6F
:10528000DF212448FDF7A2F8AF436D000136002F5F
:1052900034D01F2E32D83D42F7D01B4BDB6D1D4260
:1052A000ECD11D4B9D6572080123334059424B419F
:1052B000D9B28946FF2111408846342463433434EF
:1052C0004C431C19154BE418200000F0CDFA0028BF
:1052D000DAD034234A465343682241464A439B1856
:1052E0000E4AD318DA6919790123009300230020AC
:1052F00000F043FE200000F0F9F9C5E703B0C0BCA0
:10530000B946B046F0BDC04600001150F00401108F
:105310007C05011044040110003011501C110020C4
:1053200070B51D4A9823D45880235B0225001D4088
:105330001C4206D1E30612D4E30415D4A54225D1BC
:1053400070BDFFF7D3FE01221449002000F0FBFDE1
:10535000134B802292021A6580256D02EAE7102322
:105360001D43FFF781FFE7E700230E4A13700A4A47
:10537000136080235B011D4301220121002000F006
:10538000CFFD074B802212031A65D7E72900614041
:105390000548FDF739F8C0460000115000001050D4
:1053A00000301150D1190020FC04011070B50C0020
:1053B00015001E00FFF78CFE33002A00210000F0CC
:1053C0007FFA70BD10B5FFF791FE01230022002186
:1053D0008020FFF7EBFF10BD10B50400037D002B0C
:1053E00011D18378002B05D14378002B12D00122F4
:1053F000094B9A66802212010849200000F080F9CA
:105400000123237510BD8421054B064A4900064837
:10541000FCF7DCFF0222EBE700201150FFF7FFFF53
:1054200010050110440501104404011010B5FFF7E8
:105430004FFEFFF7D1FF10BD10B504008378002B9D
:1054400005D14378002B0AD00122064B9A66002230
:105450000549200000F054F90023237510BD0222F5
:10546000F3E7C04600301150FFF7FFFF10B5FFF71C
:105470002FFEFFF7E1FF10BD10B5002804D1012178
:105480000520FDF7D5F910BD7E21034B034AFF31FE
:105490000348FCF79BFFC04620050110580501108A
:1054A0004404011010B5002804D1064B1970FFF711
:1054B00089FF10BDC521044B044A49000448FCF78C
:1054C00085FFC046D119002020050110F805011004
:1054D0004404011010B5002804D1064B802252026A
:1054E000DA6410BDD221044B044A49000448FCF799
:1054F0006DFFC0460020115020050110EC05011081
:105500004404011010B5041E28D100F0C7F8174953
:105510000520FDF7A5F9D022D20000211448FFF79D
:105520005BFB144B00221A70134B144A1A600022C2
:1055300040210020FFF78CFE002240218020FFF751
:1055400087FE0F4B01221A6480229205DA649022B2
:105550000C4999502000FFF7BDFF10BD60210A4B98
:105560000A4AFF310A48FCF731FFC04621530010B8
:105570001C110020D11900209C1700208001105020
:1055800000001150101001002005011094050110B9
:105590004404011010B5002808D10B785B0602D135
:1055A0004B78052B09D0FFF7A1FD10BDB021054BAD
:1055B000054AFF310548FCF709FF054B1A78054BF2
:1055C0001A60F0E720050110D00501104404011015
:1055D000D11900200000115010B50C0000280DD189
:1055E0000A794B790721194009021143E2789207A1
:1055F000920FA078FFF72CFE012010BDC021034BB5
:10560000034AFF310348FCF7E1FEC04620050110C4
:10561000C00501104404011010B504000800110079
:105620001A00002C04D10123FFF7C0FE012010BD99
:10563000E321034B034A49000348FCF7C7FEC04679
:1056400020050110B00501104404011010B5002818
:1056500003D10800FFF7EAFE10BDD021024B034A38
:10566000FF310348FCF7B2FE20050110A005011030
:105670004404011010B5002803D10800FFF7F6FE1E
:1056800010BDEB21024B034A49000348FCF79EFE84
:10569000200501102C0501104404011010B58023D1
:1056A0005B040D4A13600D4A13600D4B9A6880230A
:1056B0005B049343F9D10B4C9C2200212000FFF79F
:1056C0008BFA8022520100210748FFF785FA09234F
:1056D00063670333A36710BD00E0004000F00040A3
:1056E00000C000400000115000001050002303755E
:1056F0004375322283548361C361036283627047BE
:1057000010B5002902D0C3681B681940002A0FD0C9
:10571000114353050CD5C26813685B050BD40A4BC3
:105720000B401360FFE7FFE7FFE7FFE7FFE7FFE757
:10573000C368196010BD817843789B00034A9A586A
:105740000348FCF761FEC046FFFBFFFF9403002007
:105750000806011070B50400056A8022D2002A43B1
:10576000C378002B14D06379002B1ED080218901CF
:105770000A4301214B4063712423E35C002B02D0D8
:105780008023DB011A4300212000FFF7B9FF70BD21
:10579000836AC2699446634419002A000069FFF7CE
:1057A00021FA842212022A43DDE70021E0E770B5E6
:1057B00004000E001500437D002B18D1A5610023C5
:1057C000E3612A1CABB2402B00D9402292B2226284
:1057D00001236375A662AD1A6B425D412423E55433
:1057E00001330022E2542000FFF7B4FF70BDFFF741
:1057F0007DFFE3E770B50400C3681B689D05AD0D30
:10580000C278002A13D11B040BD4C3695B19C3618E
:10581000E378002B04D0236AAB4201D9E369A3618A
:1058200070BD0D4B0D4ABF210D48FCF7CFFD1B0489
:105830000CD5836AC2699446634418002A00216922
:10584000FFF7D0F9E3695B19E361E1E7054B034A30
:10585000C9210348FCF7BAFD2806011034070110DE
:10586000480601109806011070B50400457D002D12
:1058700017D0FFF7BFFFA169E2698B1A402B00D94F
:1058800040232362D318CB1A584243412420235487
:1058900091420BD303D02000FFF75CFF00252800C6
:1058A00070BD8178034A0448FCF7AEFD0348FCF75D
:1058B000ABFDC04694030020B8060110E4060110B9
:1058C00010B50478002C04D0002B09D0FFF76FFF2F
:1058D00010BD0C21044B054AFF310548FCF776FD4D
:1058E000FFF7C2FFF4E7C0460807011020070110C8
:1058F0004806011070B5002503E00E787519ADB2A9
:10590000891995420AD24C78052CF6D18E787A34D2
:10591000344064000419F609A355EEE770BD000099
:1059200070B505001B4C372200212000FFF754F909
:10593000E01C1022FF21FFF74FF920001330122244
:10594000FF21FFF749F900F0D5FF00240EE0E30046
:105950001B1B9A00104B1B689B1802E0230010E0F1
:1059600000235B68280098470134E4B20B4B1B7896
:10597000A3420ED30A4A002AF0D0A342E7D8E31A82
:10598000DBB2002BECD1DA00D21A9200054B9B1847
:10599000E7E770BDA40F0020740C0020CC19002094
:1059A00000000000D008011070B505000C001600C2
:1059B000086900F0A9FFE36831002800984770BD2E
:1059C000F0B5D6464F464646C0B580460139C8B206
:1059D000FFF752FB002802D04378022B0AD0604A1E
:1059E00060496148FFF732FA0020E0BCBA46B14690
:1059F000A846F0BDC5796A1101235C4C1A4011011B
:105A000022781026B2430A432270AD112B405B016D
:105A1000D2B220218A4313432370060009368178CD
:105A2000C3781B020B4382469A4478E03378B14630
:105A3000F6187BE0CA2292004A494B48FFF706FA63
:105A40000020D2E7E3001B1B9A00494B1B689B1800
:105A500002E0230014E000239B683A003100404636
:105A60009847051E14D10134E4B2424B1B78A3427F
:105A700051D3414A002AECD0A342E3D8E31ADBB267
:105A8000002BE8D1DA00D21A92003C4B9B18E3E7D6
:105A9000082823D9874221D3B278344B9B18DB786E
:105AA000FF2B22D1314B9B18DC704B46002B2AD0A8
:105AB0009A78B3789A421FD14B461A7973799A42F1
:105AC0001AD101234A46D2789A421CD9B178591882
:105AD000264A5218D4700133DBB2F3E7284A214931
