:020000041000EA
:1000000000B5324B212058609868022188439860DF
:10001000D860186158612E4B002199600221596106
:100020000121F02299502B49196001219960352056
:1000300000F044F80222904214D00621196600F024
:1000400034F8196E01211966002018661A6600F04E
:100050002CF8196E196E196E052000F02FF8012189
:100060000842F9D1002199601B49196000215960AB
:100070001A491B48016001219960EB211966A021F2
:10008000196600F012F800219960164914480160C1
:100090000121996001BC002800D000471248134993
:1000A000086003C880F30888084703B5996A0420EC
:1000B0000142FBD001200142F8D103BD02B5186610
:1000C0001866FFF7F2FF186E186E02BD00000240BE
:1000D000000000180000070000035F00212200005C
:1000E000F4000018222000A00001001008ED00E03C
:1000F00000000000000000000000000074B24E7A12
:1001000000200420F7010010C3010010C5010010F9
:10011000C1010010C1010010C1010010C101001097
:10012000C1010010C1010010C1010010A57B001029
:10013000C1010010C1010010FB7B0010457C0010C4
:10014000CD010010CD010010CD010010CD01001037
:10015000CD010010CD010010CD010010CD01001027
:10016000CD010010CD010010CD010010CD01001017
:10017000CD010010CD010010CD010010CD01001007
:10018000CD010010CD010010CD010010CD010010F7
:10019000CD010010CD010010CD010010CD010010E7
:1001A000CD010010CD010010CD010010CD010010D7
:1001B000CD010010CD010010CD010010CD010010C7
:1001C00000BE00BE00BE00BE00BE00BE00F04BF888
:1001D000103800BEF2EB887194A40010B0A4001097
:1001E0003402001090A31AE700202149086006C8D5
:1001F00081F3088810471F48006800282FD10DA4FC
:100200000ECC002902D000F012F8F9E71A491B4A77
:10021000002000E001C19142FCD1194988471949E9
:1002200088471949884700BEFDE701C901C29A42C3
:10023000FBD37047B0A40010C0000020CC0B0020FE
:10024000BCAF00100000042000000420BCAF001070
:1002500000100420001004200000000070470B482C
:1002600002F076FE0047EFF30580C0B27047000051
:1002700008ED00E0000000D0D00B00208CDE002054
:100280003D1500104D030010451600105756000094
:1002900006005250ABB36053009E0010060052504F
:1002A000861C0302109E0010060052505422A29D8C
:1002B000209E001005005250DE65F468BCAF0010AF
:1002C000F8B5C04610B5064C2378002B07D1054B76
:1002D000002B02D0044800E000BF0123237010BDB2
:1002E000D80B00200000000030910010044B10B526
:1002F000002B03D00349044800E000BF10BDC046F6
:1003000000000000DC0B00203091001070B5D025FB
:100310002D06802676026E61FA246400200006F025
:10032000F7FDAE61200006F0F3FDF0E770B5D025D3
:100330002D068026B6026E61FA24A400200006F085
:10034000E7FDAE61200006F0E3FDF0E730B585B0D3
:1003500003F0C2FE102000F047F8112000F044F82E
:10036000D0231B06802252025A62802292025A62D5
:100370000023039302938024A40003AB019301257F
:100380000095002322000849084806F00DFB02AB47
:1003900001930095002322000549064806F004FB5E
:1003A00006F05EFCFEE7C046309100100D03001021
:1003B000409100102D03001010B58300084A9446A8
:1003C00063441C6840226240C024144080225201D1
:1003D00013431C60C000034B9C466044416010BD49
:1003E00004C001400040014010B501238340D022E9
:1003F0001206936293610521FFF7DEFF10BD000036
:10040000EFF3108072B6034B1B68002BFBD0BFF3D9
:100410005F8F70472C0100D0BFF35F8F024B00222B
:100420001A6080F3108870472C0100D0F8B50500E1
:100430000C001600FFF7E4FFE308EF18EA5C07235F
:1004400023401100D940C90706D4012199400A432D
:100450003A70FFF7E1FFF8BD2100300001F014F918
:10046000F0B583B00600019114001F00FFF7C8FF2C
:10047000050000E00134BC420DD8E208B018B15CC0
:10048000072222400B00D340DB07F3D40123934023
:100490001943017001E0012464422800FFF7BCFF0A
:1004A000002C02DB200003B0F0BD019B002BF9D033
:1004B000089801F0E9F80000002307E0054A9A18BF
:1004C0009200BFF35F8F0021116001331F2BF5D91C
:1004D0007047C04640000034054A1078431CDBB228
:1004E0001370172B02D9130010221A707047C046E0
:1004F000C002002000B583B00100044B00931F230D
:1005000018220348FFF7ACFF03B000BD5091001064
:100510006CD50020034B1B6802201840431E9841F5
:10052000C0B2704700C0064040BF002000217047A5
:1005300010B5002922D003681B7B99421ED8174BA7
:100540009C466144090183689C4661440C68496883
:10055000002A19D003681B7B9A4215D883680F487C
:100560008446624412019A18106853680200012000
:100570008B4201D80ED00020C0B210BD084B094AF2
:100580003B21094801F062F8054B064A3B21064829
:1005900001F05CF8A242EFD8EDE7C046FFFFFF0F85
:1005A0006C910010FC9300109091001010B5002980
:1005B0001ED0037B99421BD84B005B18033B046899
:1005C000A4466344002919D0002A1DD0914221D0AD
:1005D000002A25D0047BA24222D80468500080184B
:1005E000033820188170197800291FD11A7010BDA6
:1005F000104B114A4D21114801F028F8104B114AB7
:1006000053310E4801F022F80F4B0E4A54210B488B
:1006100001F01CF80D4B0B4A5521084801F016F863
:10062000044B054A4D21054801F010F841701A703D
:10063000DDE7C046D0910010BC930010EC91001093
:10064000309200109C9300103C92001048920010D1
:1006500070B506000D001400002914D0002A14D033
:10066000806873689847002806D02200290030006F
:10067000FFF79CFF280007E02A0021003000FFF769
:1006800095FF200000E0100070BD0800FCE70000AE
:10069000F0B5CE4600B582B00500009201930A9CE9
:1006A0000BAB1B789946002C29D00268E3B2517B32
:1006B0008B4209D10123002B1BD1002C39D1200002
:1006C00002B080BCB946F0BD002B0CD0117B8B4230
:1006D00009D811685A00D318033BCB189B78002B1C
:1006E000E9D00123E7E73D4B3D4A4D213D4800F06D
:1006F000ADFF3D4B3D4A51213D4800F0A7FF036847
:100700009C7B002CD9D00ED01A7B94420BD862006F
:100710001219033A19688C46624452789A73002A77
:10072000CBD1DA73C9E72D4B2D4A4D212D4800F06E
:100730008DFFE7B2002F3AD02B681B7B9F4236D843
:100740002C4BFB181B01AA6894466344009A1A605C
:10075000019A5A60089A9A60099ADA602E68002F06
:100760002BD030D0337B9F422DD87B00DB19033B4D
:1007700032689446634400229A705A701A70717BF2
:100780003A003000FFF764FF7073A04297D1287DD4
:10079000009A019B00F0F4FB061E02D04B46002B92
:1007A00017D00C9B002B00D189E71E7087E7124BF6
:1007B000124A3B210E4800F049FF114B114A7721A4
:1007C000084800F043FF054B054A4D21054800F05D
:1007D0003DFF2868390000F035FEE2E7D0910010B7
:1007E000BC930010EC91001060920010C8930010B0
:1007F00090910010FFFFFF0F6C910010FC93001010
:1008000084920010B0930010F0B5DE4657464E4675
:100810004546E0B58BB00990002308938200A44BB5
:10082000D65837004CE0A34BA34A3B21A34800F025
:100830000DFF002901D1002868D10121404600F0B8
:10084000F7FDA04219D12A686B6806920793AB683E
:100850009846EB689A464346002B14D0002C18D0DB
:100860003B681B7B9C4214D8631EFA68D35C0893D8
:100870001B0218433861002015E0914B914A782102
:100880008E4800F0E3FE904B8E4A7C218B4800F0AE
:10089000DDFE884B8D4A4021884800F0D7FE0023BA
:1008A0009A46984600207B68BFF35F8F00221A604B
:1008B00086F310884346002B31D1002800D1EFE0A9
:1008C00000F00AFB02000B000020002106900791B7
:1008D0007868EFF3108672B601680029FCD0BFF388
:1008E0005F8F396888464C7B002CD8D09BD0097B21
:1008F0008C4298D8764965182D01B9688C466544B4
:1009000028686968801A9941002992DD2A686B6815
:10091000099800F035FB00239A469846C3E7089BE8
:100920001B022343994651461800C04705000E009C
:100930007A68EFF3108B72B6136859424B41D9B203
:10094000002BF9D1BFF35F8F002E23DB002E47DD94
:100950003B69002B48D04B4567D100F0BDFA02003F
:100960000B000100180052197341984202D804D1BB
:10097000914202D901225242D31700210491013140
:100980000391029451460191414600913800FFF7CE
:100990007FFE41E03B69002BD8D04B451AD1069A27
:1009A000079B10001900521BB341994202D804D191
:1009B000904202D901225242D31700210491013101
:1009C0000391029451460191414600913800FFF78E
:1009D0005FFE21E03F4B3B4A8B21384800F036FE5A
:1009E000002E01D1002DB3D13A68002C39D0537BB1
:1009F0009C4220D10121002933D1D37B002B36D159
:100A0000D473002C46D03B681B7B9C4242D8FA68CA
:100A1000013C135D0133135500233B617A68BFF33A
:100A20005F8F13608BF310884AE72A4B254A8E218B
:100A3000224800F00BFE002C0DD0137B9C420AD8FC
:100A400063001B19033B1068844663449B78002BAA
:100A5000D1D00121CFE7204B204A4D21204800F082
:100A6000F5FD204B204A8F211D4800F0EFFD002BA3
:100A70000AD0117B8B4207D85900CB18033B116871
:100A80008C4663445C70BBE7134B144A4D211448F9
:100A900000F0DCFD074B0D4A4021084800F0D6FD70
:100AA0000BB0F0BCBB46B246A946A046F0BDC0465E
:100AB00058DC00206C910010FC9300109091001005
:100AC00088920010E0930010A09200107493001020
:100AD000FFFFFF0FAC920010D0910010BC930010EC
:100AE000EC910010E89200108893001010B5054BAF
:100AF0001868002800D010BD034B044A3521044873
:100B000000F0A4FD98D50020089300105C9300101D
:100B10009091001070B505000E0000F0D1F928008A
:100B200000F096FA1249280000F0E2F9182003F0CC
:100B30007DF90400FFF7D0FC0E4B9C46604480001A
:100B4000606022000C49300000F084FB206010211E
:100B5000300003F06FF9A0600121300003F06AF962
:100B6000E0602575AD00054BEC50200070BDC0461F
:100B700009080010400000343105001058DC002046
:100B800010B5064B1B68002B00D010BD10210320B0
:100B9000FFF7C0FF014B1860F7E7C04698D500206B
:100BA000F0B5DE4657464E464546E0B589B080462C
:100BB00016001F00129B9A46139B994614AB1B7894
:100BC0009B461F236B4400221A702CE0002B09D097
:100BD00042461268127B934204D85A1E4146C968A5
:100BE000895C3DE0354B364A4021364800F02EFD09
:100BF0000020002A5BD05B46002B58D04946D047E6
:100C000004000D0003000B434DD000293CDA3200F4
:100C10003B00361BAF41BB4202D804D1B24202D9DD
:100C200001267642F71743465A68EFF3108472B6EE
:100C30001368002BFCD0BFF35F8F1F236B4404931A
:100C40000023039302934B460193534600933200D3
:100C50003B004046FFF71CFDC3B2002BB6D1190084
:100C600042465268BFF35F8F0025156084F31088F9
:100C7000002B1AD01F236B441A78002AB8D109021E
:100C8000FF2318400843B4E700F026F906000F00E0
:100C900036196F41B94202D8C5D1B042C3D9012635
:100CA0007642F717BFE7002001E00120404209B07B
:100CB000F0BCBB46B246A946A046F0BD6C91001000
:100CC0007493001090910010F8B504004268EFF39F
:100CD000108572B6136858424341D8B2002BF9D13F
:100CE000BFF35F8FCBB22268567BB3421BD101208A
:100CF000002846D0206988422BD0090AC9B2002BAF
:100D00002DD02068007B834229D8581EE668305CCD
:100D100088422AD000206368BFF35F8F00221A60E8
:100D200085F31088F8BD002B0DD0167BB3420AD88E
:100D30005E00F618033E1768BC466644B678002E7F
:100D4000D6D00120D4E7124B124A4D21124800F0B0
:100D50007DFC124B124AE021124800F077FC124B46
:100D6000124A40210F4800F071FC1900100000F0F9
:100D700069FB0028CFD10E4B094AE721094800F052
:100D800065FC23698B42C6D100232361C3E7C046BB
:100D9000D0910010BC930010EC9100101C93001037
:100DA00044930010909100106C9100107493001007
:100DB0004093001070B584B006000C00FFF796FE5B
:100DC000002302930193194B009332002300FFF795
:100DD000E7FE051E11DD20BFFFF788FE2900FFF7A3
:100DE00073FF134B5B6A9C421BD8114A926AB24252
:100DF0001AD29C4213D0012014E00D4B5B6A9C4236
:100E000009D80B4A926AB24207D29C4201D0012013
:100E100008E0002006E0002004E0012002E00020BD
:100E200000E0002004B070BD0120FBE729050010A0
:100E30000040054070B5EFF305833F20184010389F
:100E4000EFF3108C72B6194B1B68002BFBD0BFF36D
:100E50005F8F012319008140154A5163154A1278AA
:100E60001400C440234214D0114B5C6A8300124D1D
:100E70005B599C4206D38300104C1B598A430D4991
:100E80000A7007E00A4A031D9B00995899500023F5
:100E900000E00023BFF35F8F044A002111608CF350
:100EA0001088002B00D0984770BDC046280100D0A4
:100EB0000040054089DE002074DE00205CD5002063
:100EC00010B50100024A0348FFF7B0FA10BDC04652
:100ED0000894001087DE0020044B5B6A034A906A86
:100EE0001900536A9942F9D17047C0460040054045
:100EF00070B504000D00EFF3108672B61B4B1B6833
:100F0000002BFBD0BFF35F8F002D1CD0200000F022
:100F1000D9FD174B83420BD01900200000F0DAFDF9
:100F20000121200000F0BEFD0123A340114A1360FF
:100F3000A400114BE550BFF35F8F0C4B00221A60E9
:100F400086F3108870BDA2000B4B0021D150012206
:100F5000A2400A490B7893430B700549200000F02A
:100F6000E3FD0021200000F09DFDE4E7280100D012
:100F7000350E0010386005405CD5002089DE002069
:100F8000F0B5DE4600B584B00400150001921E00E5
:100F90000293FFF7A1FF03958E4202D844D1854208
:100FA00042D9EFF3108B72B6224B1B68002BFBD09B
:100FB000BFF35F8F0125A5401F4B5D63EFB21F4953
:100FC0000A783A430A70221D92000199D150A40078
:100FD0001B4A0299A1501B6A2B4212D1164B1B6C63
:100FE0002B4208D00020BFF35F8F124B00221A6003
:100FF0008BF3108819E0134B134AB221134800F009
:1010000025FBFFF769FF8E420CD802D1039B834278
:1010100008D8094B1D625D63084A1378BB431370FF
:101020000120E0E70020DEE7012004B080BCBB46E1
:10103000F0BDC046280100D00040054089DE0020F8
:1010400074DE00202C9400108C940010509400103A
:10105000EFF3108C72B60B4B1B68002BFBD0BFF369
:101060005F8F01238340084A136208490A789A4334
:101070000A70BFF35F8F034B00221A608CF3108855
:101080007047C046280100D00040054089DE00209E
:1010900010B51F2905D8064B9C46614489000160A4
:1010A00010BD044B044A0A21044800F0CFFAC046A0
:1010B00040000034A89400100C950010D494001047
:1010C00010B50400FFF708FA01002000FFF7E0FF69
:1010D000FF232371BFF35F8F10BD10B5FFF7D8FF5B
:1010E000BFF35F8F10BD10B504000120FFF702FAB7
:1010F00001002000FFF7F1FF10BD000010B500292E
:101100001ED0037B99421BD84B005B18033B04683D
:10111000A4466344002919D0002A1DD0914221D051
:10112000002A25D0047BA24222D8046850008018EF
:10113000033820188170197800291FD11A7010BD4A
:10114000104B114A4D21114800F080FA104B114A02
:1011500053310E4800F07AFA0F4B0E4A54210B48D7
:1011600000F074FA0D4B0B4A5521084800F06EFA56
:10117000044B054A4D21054800F068FA41701A7089
:10118000DDE7C046D091001090960010EC91001061
:10119000309200107C9600103C9200104892001093
:1011A00070B506000D001400002914D0002A14D0D8
:1011B000806873689847002806D022002900300014
:1011C000FFF79CFF280007E02A0021003000FFF70E
:1011D00095FF200000E0100070BD0800FCE7000053
:1011E00010B50023437301338373037BC373012161
:1011F000037B8B4215D9CBB2002B0CD0027B9342E0
:1012000009D85A00D218033A0468A446624401334C
:1012100053700131ECE70C4B0C4A4D210C4800F0A7
:1012200015FA002B09D09B4207D801685A00D31841
:10123000033BCB1800225A7010BD034B034A4D21CB
:10124000034800F003FAC046D091001090960010B9
:10125000EC910010F8B505000F00160010210120D8
:1012600002F0E8FD0400057347600321280002F046
:10127000E1FD2060A6602000FFF7B2FF2000F8BD6E
:1012800070B50400081E00D170BD002934D0237B46
:10129000994231D84B005B18033B22689446634463
:1012A0005A78002AF0D02DD0237B9A422AD85300B6
:1012B0009B18033B21688C4663445D78002159707C
:1012C000002825D0237B984222D843001B18033BDB
:1012D00021688C4663440021597001002000FFF70B
:1012E0005FFF060029002000FFF7CAFF020031005F
:1012F0002000FFF755FFC7E7084B094A4D21094871
:1013000000F0A4F9054B064A4D21064800F09EF96D
:10131000024B034A4D21034800F098F9D091001088
:1013200090960010EC91001070B505000C001600AE
:10133000002928D02DD0037B99422AD84B005B1876
:10134000033B0268944663445A78002A27D19A786E
:10135000002A2AD11978FFF793FF0300002E03D14A
:10136000EA7B002A27D1EC73002B37D1002C49D01F
:101370002B7B9C4246D82B6861000C19033C1C193E
:101380000023637070BD224B224A3321224800F0B3
:101390005DF9224B224A4D21224800F057F9224B99
:1013A0001C4A35211C4800F051F9204B194A3621BE
:1013B000194800F04BF9002A0AD0297B8A4207D845
:1013C00051008A18033A29688C4662445470CAE76F
:1013D000124B134A4D21134800F038F9002B0BD063
:1013E0002A7B934208D843001B18033B2A68944683
:1013F000634400229A70B9E7084B094A4D21094815
:1014000000F024F9054B064A4D21064800F01EF96C
:10141000AC95001068960010B4950010D0910010A3
:1014200090960010EC910010E895001010960010B6
:1014300070B504000A00457B2900FFF775FF607353
:10144000280070BD70B50400002967D0437B8B4233
:101450000ED0002911D0037B99420ED84B005B18A7
:10146000033B0268D0188378002B0CD1002056E093
:101470000021FFF7DDFF012051E0294B294A4D21D2
:10148000294800F0E3F8002B20D0227B93421DD89E
:101490005A00D318033B2268D2182568EB5C8B42B4
:1014A0001AD0002B1BD0227B934218D85A00D31895
:1014B000033B2268D21853788B4216D0002BF0D110
:1014C0001A4B1B4A63211B4800F0C0F8144B154A05
:1014D0004D21154800F0BAF84378137007E0104B1F
:1014E000104A4D21104800F0B1F8437853700023A2
:1014F0008370437000222000FFF716FF0200617B1B
:10150000814205D02000FFF74BFE6073012006E00A
:10151000094B074A6921074800F098F8002070BD80
:10152000D091001090960010EC91001034960010AD
:101530005C960010B49500103C96001070B5234BDB
:10154000234A1A60234B244A1A60244B9A68224B80
:101550009343FAD1224C01E008CC9847214B9C429E
:10156000FAD300F01DF91B4B1F4A1A601B4B9B68F6
:10157000DB43DB01FAD11D4B40229A675A671A6799
:10158000DA661B4C03E02000FFF79AFD0834194B84
:101590009C42F8D3184CA168184DC022280002F0D4
:1015A0005BFCA560EFF30383FF221A4200D000BE6C
:1015B000FEF782FF00F022FCFFF7E2FA104C01E098
:1015C00008CC98470F4B9C42FAD370BD00E0004016
:1015D000BFCDFFFF00F00040FE7F3C0000C0004098
:1015E000B80B0020C80B0020FFFFFF0100F00140F6
:1015F000B00B0020B80B002000ED00E00000002040
:10160000C80B0020CC0B002000BEFDE703000A4AF7
:101610001268002A08D0084A1068C318074A934283
:1016200006D2054A13607047034A05491160F2E784
:1016300001204042F7E7C046D0D50020000004203A
:101640008CDE002010B5FFF7DFFF000010B582B080
:101650000C001900002A0CD0084B002A0BD0019274
:10166000009323000200064802F02AFD0120FFF744
:10167000CBFF044BF1E7034AF1E7C0469C9600100C
:10168000AC960010A89600100FB400B583B00848BF
:1016900002F0E6FC049B002B07D005A9019118007D
:1016A00002F0ECFC034802F0DBFC0120FFF7ACFF8A
:1016B000DC960010EC960010F8B5D646474680B58B
:1016C00006000D001700089A934243D3190E180222
:1016D000089A002301F0DAFC80467400A419A400E3
:1016E0002A4B9C4664446368834200D26060331F87
:1016F000DBB29A46012B33D9C0239B0123438022BE
:1017000012011A60B300224A9958002905D0506985
:1017100001F076FC01300138FDD17F01226857408D
:10172000E022174080235B0123431F605246012AB9
:1017300021D980239B012343802212011A60434652
:101740006360B600124B089AF2500120C0BCBA4642
:10175000B046F8BD0F4B104A2E211048FFF776FF18
:10176000012DC9D1C0239B01234303221A60A36822
:10177000DB07FCD5D1E72168694003220A401A60E3
:10178000A2680123AB401342FAD0D2E700800040A8
:1017900070D50020F09600104097001004970010BC
:1017A00030B583B00C2000F08DF8FEF7B3FE0028B2
:1017B0000DD0002304E09900334A344888500133A7
:1017C000092BF8D9304B324A5A6203B030BD314B45
:1017D00000229A6700F07EF82F4B01221A602D4BF1
:1017E0005B6C012BFBD12D4B03221A60294B9B6BA9
:1017F000012BFBD1C0239B01294A1360294A1360A6
:10180000294B9A68C0239B019343F9D10224009489
:101810000633264A0121264800F070F8009405237B
:10182000244A0121244800F069F8244B0093002247
:1018300002210420FFF740FF214D00952B000022DC
:1018400001210520FFF738FF104C009423000022EF
:1018500000210720FFF730FF009423000022002121
:101860000820FFF729FF0A4B0093230000220021E4
:101870000920FFF721FF00952B0000220021062000
:10188000FFF71AFFA1E7C04670D50020006CDC020C
:101890001BB70000008000403CB0004030B000406A
:1018A00000E0004000F0004000C00040002F6859F8
:1018B0000080024000389C1C00C00240001BB700A2
:1018C0004059730780239B000343014AD36270474A
:1018D00000800540064BAA2212011A602F22DA600E
:1018E000044B054A1A60024B5B68002BFBDA704719
:1018F000004002400060024000B0FA00F8B5CE4659
:10190000474680B50400894690461D0008AB1F7805
:1019100001235B424360002383600C2001F070FBD5
:1019200006004B46236043011B1A9901C91AC900DE
:1019300009188901404601F063FB0200103A982320
:101940005B009A4220D86B1E062B23D87B1EDBB28D
:10195000062B1FD8AF4223D843461A09B24225D3DB
:10196000A060221DC0239B01134321221A6022681C
:10197000002AFCDA2D043F033D43E56008221A608B
:10198000C0BCB946B046F8BD0B4B0C4A1A210C48F6
:10199000FFF75CFE0B4B094A1D210948FFF756FE75
:1019A000094B064A23210648FFF750FE074B034A1E
:1019B00027210348FFF74AFE509700102498001093
:1019C0006C970010A4970010F09700100898001072
:1019D000074B9B68103080001950BFF35F8FBFF337
:1019E0005F8F044B0021196082F310887047C04656
:1019F00000ED00E0240100D010B5091A04394808B0
:101A0000090B05D14005400D044B184380B210BDB1
:101A1000034B044A8D210448FFF718FE00E0FFFF46
:101A200030980010349A00104098001010B5091A30
:101A300004394C08090B08D14905490D064A1143E0
:101A40000180064B2343438010BD054B054A952179
:101A50000548FFF7FBFDC04600F0FFFF00F8FFFF61
:101A600030980010089A001040980010012383401D
:101A7000034A10681840431E9841C0B27047C046E0
:101A800000E100E0002904D0034B1860034B18600C
:101A90007047034B1860FBE780E200E000E100E0E4
:101AA00080E100E010B5012383401800FFF7EAFF52
:101AB00010BD000001238340014A13607047C046F7
:101AC00000E200E0024B9B6810308000C058704775
:101AD00000ED00E070B504000D00EFF3108672B663
:101AE0000C4B1B68002BFBD0BFF35F8F2000FFF770
:101AF000E9FF094B984201D0A84205D132002900E4
:101B00002000FFF765FF70BD044B054A71210548B1
:101B1000FFF79CFD240100D0CD0100107898001043
:101B2000509A001040980010F0B5CE46474680B558
:101B300083B006000D00EFF3108872B65A4B1B6895
:101B4000002BFBD0BFF35F8F584B9A6834001034E2
:101B5000A300D758564B9F4207D0AF4200D1A0E018
:101B60000197544BFB1A2F2B09D9424639003000FC
:101B7000FFF72EFF03B0C0BCB946B046F0BD300041
:101B8000FFF774FF814600213000FFF78BFFBFF3A2
:101B90005F8FFEF768FB002801D084421ED101232D
:101BA000019C9C434349611A8A1093009B181901B8
:101BB0005B1819025B18190459184900891800228A
:101BC000A368AB4212D00622A256002A0DDB5300B6
:101BD0009B189B002200374CE418F1E78E21364B0E
:101BE000364A49003648FFF731FD2200AB4251D159
:101BF00006256557002D39DB6B005B199A002D4BCC
:101C00009B189A68A260DA79E27106229A56A2714C
:101C10009B795BB2002B10DABD200002A0806B0024
:101C20005B199B00234AD318264A117899711570C5
:101C300049463000FFF736FF97E7201D6B005B1920
:101C40009B001C4A9B181A1D9B88D90A1C2907D186
:101C50005B055B15023359005118FFF7CDFEDDE738
:101C6000194B1A4A9B211648FFF7F0FC00280CD1AB
:101C7000002A08D0FF239371154B9380114B1A78DB
:101C8000A2711970D4E70A4FF8E7201D1149FFF738
:101C9000CDFECDE75221104B084AFF310848FFF72F
:101CA000D5FC034F61E7C046240100D000ED00E001
:101CB000CD010010C40200208C990010209A001061
:101CC0004098001088DE002074990010409A00109F
:101CD00000BDFFFFFE020020B099001010B50323E5
:101CE00004009C43064A9446644422681840C0009D
:101CF000FC3383409A43130081400B43236010BDA3
:101D000000E400E0F8B5040001250543304BEB1A70
:101D10002F2B2DD8FEF7A7FA002830D0EFF3108133
:101D200072B62C4B1B68002BFBD0BFF35F8F284B88
:101D3000E31A9E10B20092191301D2181302D2189E
:101D40001304D3185B009B19234A92688000125831
:101D5000AA421BD00020032832D842001218920059
:101D60001B4DAA18927952B29A421FD00130F2E765
:101D7000B7211A4B1A4A49001A48FFF767FC72212B
:101D8000194B174AFF311748FFF760FC124A926857
:101D9000164D1550164A1078A0711370BFF35F8F5F
:101DA0000C4B00221A6081F31088F8BD2E0042000F
:101DB0001518AD007519FF27AF710E48A880E9E727
:101DC000C1210D4B064A49000648FFF73FFCC046BB
:101DD000C4020020240100D000ED00E0B8990010FA
:101DE000EC99001040980010E0990010CD0100100F
:101DF00088DE002000BDFFFF3496001010B50024DF
:101E000004E080212000FFF769FF01341F2CF8D97E
:101E100010BD704710B5002802D00B68496898477C
:101E200010BD0100002007E083001B185B00501C60
:101E300008601078C01830380A681378303BDBB27D
:101E4000092BF1D97047F0B5DE4657464E46454658
:101E5000E0B583B093461F000C9B9A460D9C0E9BE9
:101E600099460F9B9B0703D0B8460F00060022E05F
:101E70000192A34688464E46B9460700B44207D2AF
:101E8000551C4B4641462020B84701342A00F5E74F
:101E90003D004F465C46019B9B46B1464646B846D0
:101EA00037002E0007E0013C551C5346185D4346A1
:101EB0003900B0472A00002CF5D135003E004746D6
:101EC0000F9B9B0707D4100003B0F0BCBB46B24683
:101ED000A946A046F0BDB0464E46B9462F005D4625
:101EE000531BB342EFD2541C4B4641462020B84707
:101EF0002200F5E7F0B5CE46474680B585B094465A
:101F000098460C9D0D9C0EAB1B789946109A119B20
:101F1000129EB7071CD4002B0CD0F7070AD54F46EA
:101F2000002F02D10C37374204D0013B02E03027AA
:101F30002F550134944201D21F2CF8D9F70707D549
:101F40009C4205D21F2C03D830272F550134F5E7CA
:101F5000F70615D5770505D4002C03D0944224D07C
:101F60009C4222D00F9A102A2BD00F9A102A30D0E0
:101F70000F9A022A35D01F2C02D830222A5501345C
:101F80001F2C05D84A46002A31D02D222A5501346B
:101F9000039602930194009543466246FFF753FF70
:101FA00005B0C0BCB946B046F0BD621E012C06D0DB
:101FB0000F9F102F01D01400D4E7023CD2E7140089
:101FC000D0E7B206D1D41F2CCFD878222A550134BD
:101FD000D1E7B206CCD51F2CCAD858222A550134D5
:101FE000C9E71F2CC7D860322A550134C3E77207EE
:101FF00003D52B222A550134CAE73207C8D520223F
:102000002A550134C4E7F0B5DE4657464E464546EC
:10201000E0B593B081468A46089209931CAB10CB79
:102020001B789B461E9D219B9846002C03D11023B4
:1020300042469A4390468023DB0046461E40424675
:102040001A4212D0002C22D000260EE03033D9B232
:10205000771C0AAB99552900200000F0D1FFAC4253
:1020600016D31F2F14D83E0004002900200000F0D2
:10207000C7FFCBB2092BE9D94246920605D54121CB
:10208000C918C9B20A39C9B2E2E76121F8E72700E5
:1020900043460693209B05931F9B049303955B4641
:1020A000029301970AAB0093099B089A5146484650
:1020B000FFF720FF13B0F0BCBB46B246A946A046CE
:1020C000F0BDF0B5DE4657464E464546E0B595B004
:1020D000089009910A920B931E9E1F9C20AB1B78BF
:1020E0009B46229B9946239D269B9A463300234379
:1020F00003D1103352469A4392468023DB00574661
:102100001F4052461A4219D0330023432DD00027D6
:1021100014E03033DAB27B1C98460CABDA554A46F1
:102120002B003000210000F0B1FFA5421FD819D0CC
:1021300043461F2B1BD8474606000C004A462B007F
:102140003000210000F0A2FFD3B2092BE1D95246A2
:10215000920605D54122D218D2B20A3AD2B2DAE7B3
:102160006122F8E7B145E3D901E0002398465346E0
:102170000693259B0593249B04934B4603935B4650
:102180000293434601930CAB00930B9B0A9A099967
:102190000898FFF7AFFE15B0F0BCBB46B246A946A3
:1021A000A046F0BDF0B5DE4657464E464546E0B582
:1021B00091B0824689460E9298461A9C07941B9DC0
:1021C000089522002B002000290001F0D6F90028F4
:1021D00000D06FE101225242D94B2000290001F0CA
:1021E000C7F9002800D065E101225242D54B2000FA
:1021F000290001F0A7F9002800D05BE100220023AC
:10220000079C2000089D290001F09CF9002800D0BF
:1022100067E1079A089B099206938023DB001E9AC8
:102220001A400F921E9A1A4201D106231C93099B51
:10223000069A100D4005400DC3498C4660441203B8
:10224000120B1E00C14B13431F0001F0A9F9C04A35
:10225000C04B01F035F9C04AC04B01F01FF9040032
:102260000D000022BE4B3000390001F00EF9BD4ACE
:10227000BD4B01F025F902000B002000290001F000
:102280000DF901F0A5F9834601F08AF904000D006B
:10229000B64AB74B01F014F90022B64B01F0FEF834
:1022A00001F096F90600B44AB44B2000290001F071
:1022B00007F904000D000A96300001F071F9B04AE8
:1022C000B04B01F0FDF802000B002000290001F0E6
:1022D000DCF804000D0002000B0001F0F1F806002C
:1022E0000F000A99A84B9C466144002200230A92E1
:1022F0000B9309050B9100210A9122002B0020006D
:10230000290001F0CBF80C900D9122002B00002049
:102310008021C90501F0B9F804000D0000229B4B93
:102320003000390001F0C3F80022994B01F0B6F8F3
:1023300002000B003000390001F0B9F80022954B83
:1023400001F0ACF802000B003000390001F0AFF8EA
:1023500002000B002000290001F0A0F802000B0091
:102360000C980D9901F0A3F80022784B01F096F833
:102370000A9A0B9B01F0A4F804000D000A940B9537
:10238000099A069B01F0F4F800280BD001235B4268
:102390009C46E34400227E4B2000290001F087F890
:1023A0000A900B915B466333C62B00D9A0E004244E
:1023B0001E9B1B0523D5784A784B099E3000069D4D
:1023C000290001F0CDF8002800D196E00022744BDE
:1023D0003000290001F0B6F8002800D18DE01C9BE8
:1023E0005B4500DC86E05A46981A431E1C93802306
:1023F000DB001E9A1A431E92002400239B461D9B5D
:102400009C4200D385E01D1B02231E9E1E401E9A87
:10241000134202D0002C00D000255B46002B07D0D1
:102420000A9A0B9B0998069901F041F809900691C8
:10243000002200230798089901F084F800286AD147
:10244000584B1E9A1340049303951C9B0293099AC0
:10245000069B0092019343460E9A4946504600F06F
:10246000A3F8002C36D01E9B9B065BD54527451C48
:102470004346020049463800D0475B46DA179B18AE
:10248000534005220592013C0494002203920A3233
:1024900002925A46D00F0190009343462A004946C3
:1024A0005046FFF7B0FD002E14D0020057460E9E96
:1024B0001D9D3FE01E9B04931D9B03931C9B029359
:1024C000079A089B0092019343460E9A494650464C
:1024D00000F06AF811B0F0BCBB46B246A946A0466F
:1024E000F0BD099480231B069C466544069594E63E
:1024F00005245DE700231C9379E71C9B002B00D18A
:102500007DE70F9B002B00D179E71C9B013B1C93BF
:1025100075E7002578E70699802000068446614427
:1025200006918DE76527A2E7541C434649462020C3
:10253000B8472200931BAB42F6D31000CAE7C0464F
:10254000FFFFEF7FFFFFEFFF01FCFFFF0000F03F09
:10255000FB799F501344D33FB3C8608B288AC63F92
:102560000000F83F61436F63A787D23F71A37909E9
:102570004F930A400000E03F1655B5BBB16B0240D7
:10258000EF39FAFE422EE63FFF03000000002C4028
:1025900000002440000018402D431CEBE2361A3F97
:1025A00080842E41FFF7FFFFF0B5DE4657464E46CA
:1025B0004546E0B595B00690079193469946209F11
:1025C0001E9A1F9B1000190000F0D7FF002831D180
:1025D00001225242BF4B1E981F9900F0B3FF002802
:1025E00037D101225242BC4B1E981F9900F0C0FF08
:1025F00000283DD10022B94B1E981F9900F0B8FF6A
:10260000002850D10022B64B1E981F9900F09AFF67
:10261000002848D1002200231E981F9900F092FF45
:10262000002850D100239846229B5B0500D4B6E0D9
:10263000002458E0229B0393219B029303230193E0
:10264000A84B00934B465A4607990698FFF7FBFBA9
:102650000EE1229B0393219B029304230193A24B3F
:1026600000934B465A4607990698FFF7ECFBFFE0AC
:102670000423229A1A4022990B4210D09B4B002A25
:102680000FD0042222990391219902910192009383
:102690004B465A4607990698FFF7D5FBE8E0944B5E
:1026A000EDE70322EEE7229B0493219B039302971D
:1026B0001E9B1F9C009301944B465A46079906980F
:1026C000FFF770FDD4E01E9A1F9B0020002100F050
:1026D000DCFE1E901F9101239846A5E70CAB30222B
:1026E0001A55013F01341F2C01D8092FF6D81E9826
:1026F0001F9900F06DFF050000F052FF02000B0073
:102700001E981F9900F0C1FEFA007A4B9B181A68B8
:102710005B680A920B9300F0D3FE0890099100F0D9
:102720007BFF060000F038FF02000B0008980999B3
:1027300000F0ABFE0890099100226F4B00F018FFEB
:1027400000282ED00136300000F026FF02000B00DA
:102750000A980B9900F0FCFE002801D001350026F4
:10276000002F2CD1280000F01BFF02000B001E9848
:102770001F9900F08AFE06000F0000225E4B00F059
:10278000E1FE002846D100225B4B3000390000F00A
:10279000EFFE00283ED1EB073CD501353AE0062795
:1027A00046E70022544B0898099900F0CBFE002818
:1027B000D6D1002E01D0F307D2D50136D0E7AA46F4
:1027C0001F2C11D8013F0A21300000F019FC651CB4
:1027D00030310CAB19550A21300000F011FC092EE4
:1027E0000ED906002C00EBE755461F2C0CD87B1E9B
:1027F000002F09D00CAA302111551F000134F4E735
:102800002B0055461C00F0E71F2C03D80CAB2E22E2
:102810001A5501341F2C10D80A21280000F0C4FBDF
:10282000661C30310CAB19550A21280000F0BCFBA6
:10283000051E01D03400EDE734000323229A134033
:10284000012B1CD01F2C06D84346002B32D00CABDA
:102850002D221A550134229B0393219B029301944C
:102860000CAB00934B465A4607990698FFF7EBFAD4
:1028700015B0F0BCBB46B246A946A046F0BD219BB0
:10288000002B13D04346002B02D10C3313420FD040
:10289000219B013B2193190003E00CAB30221A5518
:1028A00001348C42CED21F2CF7D9CBE72199F8E71F
:1028B0002199F6E7229B5B0704D50CAB2B221A5516
:1028C0000134C8E7229B1B07C5D50CAB20221A5543
:1028D0000134C0E7FFFFEFFFFFFFEF7F65CDCD4184
:1028E00065CDCDC1789A00107C9A0010709A0010C6
:1028F0006C9A0010689C00100000E03FF0B5DE46C6
:1029000057464E464546E0B593B082468B469046C4
:102910001193002900D1EBE200275546119B18784E
:10292000002800D1E7E2252809D07C1C43463A0064
:102930005946A847119B013311932700EEE7013355
:1029400011930024119A11780B00203BD8B2102863
:1029500003D88300D048C3589F460B00303BDBB2FE
:10296000092B2CD92A292FD000230A93119B1A78DE
:102970002E2A39D000239A46119A1378683BD9B28F
:10298000122976D88B00C549CB589F4601231C439A
:1029900001321192D6E702231C4301321192D1E792
:1029A00004231C4301321192CCE708231C4301325B
:1029B0001192C7E710231C4301321192C2E711A8FC
:1029C000FFF72FFA0A90D1E71C9B1A1D1C9218687A
:1029D000002804DB0A90119B01331193C6E7022300
:1029E0001C4343420A93F6E78022D20014435A1C48
:1029F00011925A781300303BDBB2092B04D92A2AF2
:102A000007D000239A46B7E711A8FFF70AFA8246D3
:102A1000B2E71C9B1A1D1C921868002804DB824632
:102A2000119B01331193A7E70020F8E780235B0097
:102A30002343511C119152786C2A01D01C0018E0DC
:102A4000C0239B001C430131119112E080232343DA
:102A5000511C11915278682A01D01C0009E0C02352
:102A60001C430131119104E080235B001C430132BF
:102A70001192119B18780300253BDAB2532A00D932
:102A80002CE29300864AD3589F4680239B001C4328
:102A900001321192EDE780235B001C430132119259
:102AA000E7E7782809D0582838D06F2838D062282E
:102AB00038D010239C430A2600E01026582833D033
:102AC000692803D0642801D00C229443630501D502
:102AD0000122944369282AD0642828D0A30500D570
:102AE0009FE0E30500D5B8E0630600D4CAE01C9A75
:102AF000111D1C911168FF220A4005940A9B049342
:102B000053460393029600230193009243463A00F2
:102B100059462800FFF777FA070027E01026CDE78F
:102B20000826CBE70226C9E720221443C8E7A305FD
:102B300020D4E30550D4630666D51C9A111D1C9160
:102B40001168FF220A40D317D118594005940A9BF7
:102B50000493534603930296D20F01920091434689
:102B60003A0059462800FFF74EFA0700119B01333F
:102B70001193D3E61C9BDA1D07218A43110008310B
:102B80001C91116853689C46DB170C930D930C9AAB
:102B90000D9B100048400E90624653400F930E98D4
:102BA0000F990C9A0D9B801A99410E900F910894E1
:102BB0000A9B0793534606930496002305936346A6
:102BC000DA0F02920090019143463A0059462800DC
:102BD000FFF777FA0700C9E71C9A111D1C911268CC
:102BE000D317D118594005940A9B04935346039375
:102BF0000296D20F0192009143463A0059462800AE
:102C0000FFF701FA0700B1E7230605D51C9A111D4D
:102C10001C910023D25E96E71C9A111D1C9112682C
:102C200091E71C9BDA1D07218A43110008311C9192
:102C300008940A9B07935346069304960023059332
:102C40000293136854680093019443463A0059462E
:102C50002800FFF736FA070088E71C9A111D1C911F
:102C600005940A9B04935346039302960023019311
:102C70001368009343463A0059462800FFF7C3F90A
:102C8000070073E723060DD51C9A111D1C911268CD
:102C90001204120C31E7C046849A0010C89A001042
:102CA000149B00101C9A111D1C91126825E74628E0
:102CB0001AD01C9B0733072293431A0008321C9238
:102CC00004940A9A0392524602925C681B6800932D
:102CD000019443463A0059462800FFF765FC070077
:102CE000119B0133119319E620231C43E1E7672868
:102CF00001D0472802D180231B011C43452801D065
:102D0000472801D120231C431C9B073307229343F0
:102D10001A0008321C9204940A9A039252460292B4
:102D20005C681B680093019443463A0059462800AA
:102D3000FFF738FA0700119B01331193EEE50223E8
:102D40001A002240924623421FD001241C9B1A1DC8
:102D50001C927A1C9146187843463A005946A84777
:102D60005346002B16D1119B013311934F46D5E5E5
:102D7000561C434659462020B847230032005C1CAD
:102D80009D42F5D83D001700E0E701233A002F00EF
:102D90000A9DF4E74A46A9460A9D06E0571C4346A9
:102DA00059462020C84734003A00661CA542F5D891
:102DB0004D469146D7E71C9B1A1D1C921B689946ED
:102DC0005346002B00D1013B4E4601E00136130073
:102DD0003278002A02D05A1E002BF7D14B46F21A45
:102DE00010928023DB0026001E401C4203D0524577
:102DF00001D95346109302231A0022400B9223421A
:102E000005D03A0037004C46A946554620E03A0026
:102E1000109B5F46B3462E0006E0551C4346390022
:102E20002020B04723002A005C1C0A999942F4D85C
:102E300035005E46BB46109437004C46A9465546C1
:102E400006E01D000134561C43465946C84732006F
:102E50002078002804D0002FF4D06B1E002DF0D174
:102E600017004D460B9B002B03D1119B013311938F
:102E700054E50A9F109B06E0561C43465946202005
:102E8000A847230032005C1C9F42F5D81700ECE7EE
:102E900021231C431C9B1A1D1C921B680093059444
:102EA00008230493534603931023029300230193B2
:102EB00043463A0059462800FFF7A5F80700119B42
:102EC000013311932AE57C1C43463A0059462520DC
:102ED000A847119B0133119327001FE57C1C434633
:102EE0003A005946A847119B01331193270015E575
:102EF0000A4B9A4610E5AA46474502D343465A1E56
:102F000000E03A00434659460020D047380013B04D
:102F1000F0BCBB46B246A946A046F0BD131E001049
:102F200000B585B0029003910121009313004A423D
:102F300002A90248FFF7E2FC05B000BD151E001013
:102F400001480421014B184710030020712F001085
:102F500010B5010018231B8814221088984710BD53
:102F600010B5010018231B8816221088984710BD41
:102F7000F0B5C64600B507000E00002501239846AF
:102F800000E00135B5420AD2AC003C192068FFF7D9
:102F9000DFFF20600028F4D100239846F1E7404687
:102FA00080BCB846F0BD0000144A936F9B0815D250
:102FB0009066D166002905D0FFE7FFE7FFE7516F74
:102FC000106F704704B580210906C21751400028D0
:102FD00000D0C84306F08CF8002104BD936F5B0855
:102FE000FDD3F0B5946ED56E576F166FFFF7E0FF07
:102FF0009466D56657671667F0BD0000000000D0E4
:10300000134A936F9B0813D210665166002905D0AE
:10301000FFE7FFE7FFE7516F106F704704B5002827
:1030200001D00020C04306F063F8002104BDC04673
:10303000936F5B08FDD3F0B5946ED56E576F166F26
:10304000FFF7E2FF9466D56657671667F0BD00008C
:10305000000000D094464E4A926F9208624601D218
:1030600030E0C046F0B54A4EB56F6D08FCD3346E03
:10307000756E776F366F00F025F89446444A1466F3
:103080005566576716676246F0BDC0469446404A8B
:10309000926F9208624601D258E0C046F0B53C4EAD
:1030A000B56F6D08FCD3346E756E776F366F00F0B8
:1030B0004DF89446364A1466556657671667624659
:1030C000F0BDC046002B24DB11D000293EDA00B54C
:1030D000C943404200D1013100F038F8C9434042B1
:1030E00000D10131DB43524200D1013300BD002A3F
:1030F000EBD1002801D1002905D00020C90FC90754
:1031000001D1C043410800B505F0EAFF00220023C9
:1031100000BD00B500290ADBDB43524200D1013378
:1031200000F014F8C943404200D1013100BDC94349
:10313000404200D10131DB43524200D1013300F063
:1031400005F8DB43524200D1013300BD002923D1F1
:10315000002B18D1002A0CD0BC460D4F38667A6679
:1031600000210023FFE7FFE7FFE77A6F386F67462C
:103170007047002801D00748010000B505F0B0FFF6
:103180000022002300BD02000B0000200021704738
:10319000000000D0FFFFFFFF002B00D0BDE0130CAC
:1031A00026D1002AE7D080B4104F39667A66FFE74F
:1031B000FFE730B4040C7B6F396F1B0423433B667D
:1031C000FFE7FFE7FFE7C04684B27B6F3D6F1B045C
:1031D00023433B66FFE7FFE7C04600232C042D0C8A
:1031E0007A6F386F00196941B0BC7047000000D099
:1031F000F0B594460025140E01D112020835140FC3
:1032000001D112010435940F01D192000235D40F7F
:1032100001D152000135D40B0134254F7C66254C79
:103220003C660E0C93B2FFE7FFE7FFE73C6F664397
:10323000360C7703BE467343DF0B5B04C01AB941FB
:10324000130C7343DB18C91ACE086643360CB64418
:1032500093B273431F0F1B01C01AB941130C734380
:103260001F0B1B05C01AB941860D8F023E436643F2
:10327000360C092D24DB520A7243801A7703460A62
:103280006643360C16235B1BDE40DF40BF196446E5
:103290006643821B7046043506330100D940A840BE
:1032A000C01900D30131A24206D20023F0BD0000B4
:1032B000000000D0FFFFFFFF121B0130F3D3F1E746
:1032C00009277F1BFE406446A2B27243801A00D2D7
:1032D0000139220C7243130C1204821A99410B001B
:1032E0007046043513370100F940A840801900D317
:1032F0000131002B02D1A2420AD2F0BD013000D32D
:103300000131121BFAD2013BF8D1A24200D2F0BD2A
:10331000013000D30131121BF7E7F0B51C0C00D0CF
:1033200080E00CB400251C0A04D11B02160E3343A6
:10333000120208351C0B04D11B01160F3343120176
:1033400004359C0B04D19B00960F33439200023549
:10335000DC0B02D192185B4101351C0097186441C7
:103360000134464F7C66464C3C660E0CFFE7FFE797
:10337000FFE7C0463C6F6643360C7703BE4697B204
:103380007743C01B00D20139C01B00D201399FB264
:103390007743C91BC91B170C77437E04FF0B801BA7
:1033A000B941CE086643360C0C2D33DBB644120B04
:1033B0001F053A431B0B97B27743C01B00D201395C
:1033C0009FB27743C91B170C77433E043F0C801B09
:1033D000B941860D8F023E43664329277F1BFE407D
:1033E0000C3D7746AF40BF1930BCA2B2ABB27243BE
:1033F0007343801A9941220C7243130C1204801AF1
:10340000994102000B000137001BA941F9D2781E37
:103410000021F0BD0C277F1BFE4077467F0BAF409D
:10342000FF19E0E700245D1C07D0144F7D66396664
:10343000FFE7FFE7FFE7FFE73C6F95B29EB265430A
:103440006643401BB141150C1E0C654366433604B0
:103450002F0C3E432D04401BB141994204D202007F
:103460000B0020000021F0BD01D19042F7D3801A5B
:10347000994101349942F2D3F6E70000000000D0F0
:10348000FFFFFFFF48404140484018B4114B5B68C4
:10349000FC46019308BD04DF2337001018B40D4B20
:1034A0001B68FC46019308BD00DF2D37001018B4DF
:1034B000084BDB68FC46019308BD0CDFE5390010C2
:1034C00018B4044B9B68FC46019308BD08DF89389B
:1034D0000010000068DC0020FFB550404240504022
:1034E00059404B40594000E0FFB5154F4C00640D6A
:1034F00003D0BC4204D10C0314D80020090D0905E7
:103500005C00640D03D0BC4204D11C030AD8002225
:103510001B0D1B0501264B4009D44B4003D58B42A4
:1035200000D18242FFBD9942FCD19042FFBD0B43C6
:10353000DB1803431343F5D0C9434918FFBD00000E
:10354000FF07000000B5FFF7CFFF804100BDC04678
:1035500000B5FFF7C9FF01D9002000BD012000BD63
:1035600000B5FFF7B9FF01D9002000BD012000BD63
:1035700000B5FFF7B1FF804100BD012040054A00C2
:10358000121804D85A00121801D8002070470120E0
:1035900070470020704700000021002805D17047C7
:1035A000C1174840401AFAD0C90713B5064B1B682B
:1035B00098470CBC441CA2401005120B0349091B80
:1035C00009051943114310BD68DD00201F040000E8
:1035D00010B54C00620D8023D218DB00D21A5B05B7
:1035E0007E2A10DD9E3A13DACC17090349081943E5
:1035F0005242D140640001341532202A05DAD0400D
:103600000843604310BD002010BD0846604310BD54
:10361000C80FC018013810BD18B4044B5B6AFC46D3
:10362000019308BD24DF113C0010000068DC00207D
:1036300070B513231C78012C0FD0012C0FDC022C49
:1036400002DC1D4A1D4B9A6470BD99001A481B4A42
:10365000885001331F2BF8D9EFE70023FAE7184809
:10366000FFF77EFC05001748FFF77AFC0238037865
:103670009B007F2B19DD80222900104800F0ECFB15
:10368000022CDCD1104B1A88B5231B029A4209D1B7
:103690000E4B1A880E4B9A4204D10E4B1A880E4BD1
:1036A0009A42CCD00020FDF7EFFF0C4B0C4A3021A2
:1036B0000C48FDF7CBFFC046E936001068DC00205F
:1036C000534400005346000054380000D83800002E
:1036D000494600009C38000059460000B89C001084
:1036E0005C9D0010189D001007B56046002800D1B1
:1036F00000BE01880A0A0230DF2AFAD1C9B2820864
:1037000004D3028840880004104300E00068024AA5
:103710005050039007BD000068DC00200FB403BCCC
:103720000CBCF0B50124E407634000E0F0B50C0DDB
:10373000CF0F661E3605891B640503D3C94340427B
:1037400000D30131640D03D0661CF60A07D0E41BD8
:1037500000207F00791C89078912803C24031D0DFD
:10376000DF0F6E1E36059B1B6D0503D3DB435242F4
:1037700000D301336D0D03D06E1CF60A07D0ED1B8C
:1037800000227F007B1C9B079B12803D2D032F1B7B
:10379000661B58D4A446202E46DA20371400BC40BD
:1037A0001D00BD40F24033412A4380185941CB0FE0
:1037B00005D0C943C0430022644250415141624692
:1037C0004D0D28D10D0D07D100281FD024194041DF
:1037D0004941013A0D0DF9D0640006D3013000D300
:1037E0000131002C01D140084000013A0BD4941C57
:1037F000E40A04D112051144DB071944F0BDD907CE
:10380000204B194300E0D9070020F0BD0029DDD18D
:10381000002CDBD1F0BD0132C6074008CD0728439C
:103820004908002EE1D0D9E73C2E29DA203E403766
:103830001400BC4000D00124F24014431A00BB40E5
:103840001C43D317ACE7AC46202F08DA203604001F
:10385000B4400D00B540F84039412843A5E73C2F5E
:103860000CDA203F40360400B44000D00124F84078
:1038700004430800B1400C43C117EAE710001900E7
:10388000002494E70000F07FF0B50C0D661E3605AD
:10389000891BE60A6405640D02D0651CED0A04D09C
:1038A000002001210905803C2403A4461C0D671E4D
:1038B0003F05DB1BE70A6405640D02D0651CED0AB9
:1038C00004D0002201231B05803C2403774064447C
:1038D00097B484B296B27443070C7E43150C6F43C1
:1038E00080B26843361802D3012000043F18300428
:1038F000350C00197D41844688B29AB250430C0CB5
:1039000062431F0C7C438EB27E43921902D3012680
:103910003604A4191604170C3618674101BC81B28D
:103920009AB25143040C62431B0C5C4380B258436F
:10393000121802D30120000424181004130C40189C
:1039400063412D185E410020474106BC88B293B206
:1039500058430C0C6343120C544389B251435B1817
:1039600002D301210904641819041A0C09186241D0
:103970006D1856410020474118BCF902720D1143E1
:10398000F0026A0D1043ED020A0D03D16D1940419A
:103990004941013B124E9B1B7600B3420ED26D0093
:1039A00007D30130002671416646354301D14008F6
:1039B00040001B05C918E4072144F0BD0BDA0133B0
:1039C00006D1013004D101314F0D01D04908F2E791
:1039D000E1070020F0BD013631050020EBE70000D3
:1039E000FF030000F0B51C0D671E3F05DB1BE70A57
:1039F0006405640D02D0661CF60A04D0002201237F
:103A00001B05803C2403D0252D060026F6432E6698
:103A10001E096E66CE0FF619B44649004F0D02D04E
:103A20007E1CF60A03D000200021403F3F033E1BCE
:103A3000B600B444013F7F05C91B49082E6F01360B
:103A400076089C02950D25437543ED137543AD1320
:103A500001356D10F603761B0CB4CC02450D2C43DA
:103A6000A2B2B3B25A43270C7B43350C6F43A4B2C6
:103A70006C431B1902D3012424043F191C041D0CA0
:103A8000A4187D4124196D41009A91B2ACB26143F2
:103A9000170C7C432B0C5F4392B25A43A41802D3F9
:103AA00001221204BF182204230C52187B41019CEE
:103AB0006C431B19520ED9010A434401A01A81B26A
:103AC000B2B2514303145A43360C734387B277435F
:103AD000D617D21900277E4136049B191704160CFD
:103AE0007F185E417316ED18F3010026803375418F
:103AF000A90F06D16400690AE8055B0A184309D2D8
:103B00002FE00422944480337541A90AA8059B0A3A
:103B1000184326D3404149412404009A019B0D00DB
:103B20005543641B4343E41A95B286B27543170CA0
:103B30007E43030C5F4392B25A43B61802D301226C
:103B40001204BF183204330C52197B4152429C417B
:103B5000002C02D40022013051414008CA07104312
:103B6000490802B06246D7079210084BD218084B9A
:103B70009A4203D212058918C919F0BD0020002A03
:103B800001DC3900F0BD01331905F5E7FD03000044
:103B9000FE070000624618CA944600291ADAC018C7
:103BA00061415B463B415C46B4405246FA40224389
:103BB00044464D4662416B41904699462B46B34080
:103BC0003D41FC401C4352465B46A241AB419246FC
:103BD0009B467047C01AA1414B463B414C46B440FE
:103BE0004246FA40224354465D4662416B4192464A
:103BF0009B462B46B3403D41FC401C4342464B464E
:103C0000A241AB4190469946704700200021704781
:103C1000002200B5203200F004F8080000BD0000CA
:103C200000220B15F1D410B5944600F02FF81414AF
:103C3000013400DA0021CB17134C20476244343A98
:103C40000CD40C2A07DA04009140904052422032F2
:103C5000D440214310BDD843D94310BD203207D4EE
:103C60000C469440524220321141D040204310BDB6
:103C70000800C917203203D452422032104110BD2F
:103C80001800190010BD00003D3C00100A0DCC0FBB
:103C9000531E1B05C91A520503D3C943404200D322
:103CA0000131520D03D0531CDB0A07D0121B002038
:103CB0006400611C89078912803A1203014BD21AF1
:103CC00070470000FF03000051434343C9188C466E
:103CD000110C83B24B4310B4040C614392B280B216
:103CE000504362431C041B0C001910BC59411304BF
:103CF000120CC018514161447047000070B5132385
:103D00001D782A48FFF72CF90400012D11D0012D50
:103D100009DDA31E1B789B007F2B40DD8022210044
:103D2000234800F099F82348FFF712F9224B186056
:103D300070BD542201001E4800F08EF81F4B1A88F7
:103D40001F4B9A421CD1A7239B011A881D4B9A42F4
:103D500016D11D4B1A881D4B9A4211D11C4B1A8843
:103D600094239B019A420BD11A4B1A881A4B9A4200
:103D700006D11A4B1A681A4B9A4201D1152307E053
:103D80001848FDF781FC99001748094A885001330B
:103D90001F2BF8D9144A064B1A62DA61B7E7134BA6
:103DA000134A42211348FDF751FCC0465346000018
:103DB0006CDD00204C33000068DD0020EE2900009F
:103DC000C40F0000C20D0000962B0000C0B500001B
:103DD000182B0000CC2A000010B50000FC2C0000BD
:103DE00051ED8764A8960010F93D0010709D0010F9
:103DF000E49D0010A49D001007B56046002800D186
:103E000000BE01880A0A0230DF2AFAD1C9B282084C
:103E100004D3028840880004104300E00068024A8E
:103E20005050039007BD00006CDD002010B504F079
:103E3000FDFC10BD10B504F0BFFC10BD014804210D
:103E4000014B184720030020712F0010014B1B6805
:103E50001847000020030020014B5B681847000052
:103E600020030020F8B507000D001600437C002B4E
:103E700002D0002400200CE00368110028009847BD
:103E80002DE03B7C10E0022115483B689847601C00
:103E90000134B44214DA002CF3DD2B19013B1B78FA
:103EA0000D3B5A425341DBB22A5D0A2AF0D1002B66
:103EB000EED1A042E7DA211A28183B689847E2E7DA
:103EC000B04203DA311A28183B689847002E06DD05
:103ED000AD19013D2B780D3B5A4253413B74F8BD5F
:103EE000449E001070B505000368002B16D00C4BE3
:103EF0001C6805E0290004C92000FFF7B3FFE4684F
:103F0000002C09D02368002BF9D0064B1B68002B2E
:103F1000F0D0A342F3D1EDE700232B6070BDC04683
:103F2000C4D50020CCD5002070B505000C000B686E
:103F3000802B05D021684B1C23606418257170BD4F
:103F40000800FFF7CFFFF5E710B582B0D0231B06BE
:103F50001C6801A9064805F0D3F8002806D1019B8A
:103F6000A34203D0024805F0DBF8012002B010BDE7
:103F7000B00B002010B5024805F0AAF810BDC046ED
:103F8000B00B0020F0B5C64600B582B006000D00AB
:103F90001700FFF7D9FF80466B1C02D0184B1C6836
:103FA00005E0300004F02EFF0500F7E7E468002C80
:103FB00018D02368002BF9D0124B1B68002B01D0BE
:103FC000A342F3D12A0031002000FFF74BFF002F5E
:103FD000ECD06B46D91D0A230B7001222000FFF79D
:103FE00041FFE3E74346002B06D16B1E9D41E8B23B
:103FF00002B080BCB846F0BDFFF7BCFFF5E7C04695
:10400000C4D50020CCD500200C4B1A68130001E069
:104010001A00DB68002B08D08342F9D1002903D1B4
:10402000DB68D3600023C36070470029FCD0002AFE
:1040300001D0D060F8E7014B1860F5E7C4D5002047
:1040400010B5064B1C6801E09847E468002C03D0CB
:104050006368002BF8D1F8E710BDC046C4D5002036
:1040600070B5050004F0CEFE040001220100280016
:10407000FFF788FFFFF7E4FF200070BD70B5A2B026
:1040800004000E00FFF760FF05008422002101A854
:10409000FFF7DCFE3300220001A90848FEF740FFCD
:1040A000040001A8FFF71EFFFFF7CAFF002D02D191
:1040B000200022B070BDFFF75DFFF9E7293F001037
:1040C0000FB400B583B004A901C90191FFF7D6FF71
:1040D00003B008BC04B0184710B500F0BBF810BD21
:1040E00030B583B005000C0001A9184805F008F8A8
:1040F000002808D1D0231B061B68019A9A4221D0C0
:10410000124805F00DF8002001F0E4FD002807D169
:10411000032464420D4804F0DBFF200003B030BDEF
:10412000002001F0FBFD002802D103246442F1E7E6
:1041300022002900002001F001FE041EEAD1032420
:104140006442E7E703246442E7E7C0466CDE0020F0
:1041500010B50021054804F0D3FF002800D110BDA0
:1041600001F064FB014804F0B3FFF8E76CDE0020C7
:10417000F0B5C64600B582B080460D0001A92E48B4
:1041800004F0BEFF002808D1D0231B061B68019A4B
:104190009A420FD0284804F0C3FF002001F09AFD96
:1041A000002847D1254B0020002118605960224883
:1041B00004F08EFF02B080BCB846F0BD01F036FBC3
:1041C000002001F0D3FD002001F084FD0028EED096
:1041D000002001F049FE00281DD0AC42E7DA2E1B7A
:1041E000002001F041FE0200864200DC3200002A7D
:1041F000E4D043461919002001F01AFE060001F030
:1042000015FB002001F0B2FDA419FCF765FE0B4B75
:1042100018605960E1E7FCF75FFE084B1E685F68B5
:10422000074A002392197B419942C0D8D5D19042C8
:10423000D3D9BCE70024D0E76CDE0020D00B0020EF
:1042400020A1070010B51F20FDF734FCFA208000E4
:10425000002110BD70B584B01D4B1B7802F046F8EC
:104260001C491F20FDF736FC01211F20FDF71AFC19
:104270001948FCF725FFFCF739FC0600FCF72CFE7B
:1042800004000D000100FA229200002312196B4174
:104290009D4202D804D1914202D901225242D31741
:1042A00001210291002101910C4900913000FCF79D
:1042B00077FC0400631E9C41E4B2002802D1200078
:1042C00004B070BD01210648FFF79EFEF7E7C04627
:1042D000ACA40010514100106CDE002045420010DB
:1042E0003003002000487047E89E001000487047E7
:1042F0009C9E001010B500280BD10F4B0F4A5A801E
:10430000012301335B00C022920013430A4803805B
:1043100010BD04280ED88000094BC4580023122B6E
:10432000EFD8E25C002AECD0013359000248425237
:10433000DBB2F4E70020EBE79CD500200904000085
:10434000FC9E00107F220240C3093420584368239A
:104350005343C018014BC0187047C046D4D5002045
:1043600010B582B001AB084A1A80002408E001AB06
:10437000185DFFF7E7FF0123437100230375013444
:10438000012CF4D902B010BD0080FFFF10B5C36A44
:10439000402B00D8402316490A680261D3180B60ED
:1043A000990604D03F218B43403311490B60104BD9
:1043B00019688B0610D10F4B5A404B4080214901A0
:1043C0008B420FD83023C35C9B061A43A0231B06E5
:1043D0001A4383681A6010BD074B084A59210848E0
:1043E000FDF734F9074B054A5B210548FDF72EF927
:1043F00054DC002000001050109F001064A000103A
:10440000409F0010909F001070B504007F2008406E
:104410004EB2CD0921716570F143C90FE170A070F2
:1044200000281BD101216171012B19D0402A1FD80E
:10443000E2623022A354002D1ED0C3001B4A9446D2
:104440006344E360E36800221A60A378002B19D16B
:10445000A360174B23610123237070BD0021E2E7A5
:104460008021C9008A42E3D311001248FDF70CF9FC
:1044700011001048FDF708F9C3000F4A9446634441
:10448000E360DFE7002E09DB0138C0000B4B9C46E0
:104490006044A0602000FFF779FFDCE70138C0002E
:1044A000074B9C466044A060F4E7C0468000105073
:1044B00000011050C49F0010840010500C001050D8
:1044C0000800105070B504000D001600FFF73AFF09
:1044D00033002A002100FFF797FF70BDF0B5CE46EC
:1044E000474680B583B0254B9F6D0026012508E027
:1044F000234B244ADF212448FDF7A8F8AF436D0081
:104500000136002F34D01F2E32D83D42F7D01B4B3E
:10451000DB6D1D42ECD11D4B9D65720801233340BC
:1045200059424B41D9B28946FF2111408846342473
:10453000634334344C431C19154BE418200000F03D
:10454000CDFA0028DAD034234A4653436822414644
:104550004A439B180E4AD318DA691979012300934C
:104560000023002000F043FE200000F0F9F9C5E729
:1045700003B0C0BCB946B046F0BDC0460000115003
:10458000EC9F001078A00010409F001000301150E8
:10459000D4D5002070B51D4A9823D45880235B02DF
:1045A00025001D401C4206D1E30612D4E30415D4B5
:1045B000A54225D170BDFFF7D3FE0122144900208A
:1045C00000F0FBFD134B802292021A6580256D02DC
:1045D000EAE710231D43FFF781FFE7E700230E4AB8
:1045E00013700A4A136080235B011D4301220121DD
:1045F000002000F0CFFD074B802212031A65D7E799
:10460000290061400548FDF73FF8C0460000115001
:10461000000010500030115086DE0020F89F00107E
:1046200070B50C0015001E00FFF78CFE33002A0049
:10463000210000F07FFA70BD10B5FFF791FE012355
:10464000002200218020FFF7EBFF10BD10B5040011
:10465000037D002B11D18378002B05D14378002BEB
:1046600012D00122094B9A668022120108492000CB
:1046700000F080F90123237510BD8421054B064A03
:1046800049000648FCF7E2FF0222EBE70020115048
:10469000FFF7FFFF0CA0001040A00010409F00108B
:1046A00010B5FFF74FFEFFF7D1FF10BD10B50400A6
:1046B0008378002B05D14378002B0AD00122064BCA
:1046C0009A6600220549200000F054F90023237562
:1046D00010BD0222F3E7C04600301150FFF7FFFF84
:1046E00010B5FFF72FFEFFF7E1FF10BD10B5002852
:1046F00004D101210520FDF7D5F910BD7E21034B22
:10470000034AFF310348FCF7A1FFC0461CA000107C
:1047100054A00010409F001010B5002804D1064B93
:104720001970FFF789FF10BDC521044B044A4900E9
:104730000448FCF78BFFC04686DE00201CA000105A
:10474000F4A00010409F001010B5002804D1064BC3
:1047500080225202DA6410BDD221044B044A49007F
:104760000448FCF773FFC046002011501CA0001045
:10477000E8A00010409F001010B5041E28D100F0E2
:10478000C7F817490520FDF7A5F9D022D20000216E
:104790001448FFF75BFB144B00221A70134B144AAA
:1047A0001A60002240210020FFF78CFE00224021E9
:1047B0008020FFF787FE0F4B01221A6480229205AA
:1047C000DA6490220C4999502000FFF7BDFF10BD1C
:1047D00060210A4B0A4AFF310A48FCF737FFC046FE
:1047E00095450010D4D5002086DE002054DC002042
:1047F0008001105000001150101001001CA000108A
:1048000090A00010409F001010B5002808D10B7830
:104810005B0602D14B78052B09D0FFF7A1FD10BD37
:10482000B021054B054AFF310548FCF70FFF054B4A
:104830001A78054B1A60F0E71CA00010CCA00010FD
:10484000409F001086DE00200000115010B50C00C3
:1048500000280DD10A794B7907211940090211432B
:10486000E2789207920FA078FFF72CFE012010BD8E
:10487000C021034B034AFF310348FCF7E7FEC04663
:104880001CA00010BCA00010409F001010B5040038
:10489000080011001A00002C04D10123FFF7C0FE0C
:1048A000012010BDE321034B034A49000348FCF7F4
:1048B000CDFEC0461CA00010ACA00010409F001010
:1048C00010B5002803D10800FFF7EAFE10BDD02183
:1048D000024B034AFF310348FCF7B8FE1CA000104E
:1048E0009CA00010409F001010B5002803D10800C4
:1048F000FFF7F6FE10BDEB21024B034A49000348C7
:10490000FCF7A4FE1CA0001028A00010409F00107F
:1049100010B580235B040D4A13600D4A13600D4BE4
:104920009A6880235B049343F9D10B4C9C220021AD
:104930002000FFF78BFA8022520100210748FFF781
:1049400085FA092363670333A36710BD00E00040C5
:1049500000F0004000C00040000011500000105066
:10496000002303754375322283548361C36103625C
:104970008362704710B5002902D0C3681B681940D4
:10498000002A0FD0114353050CD5C26813685B058C
:104990000BD40A4B0B401360FFE7FFE7FFE7FFE78D
:1049A000FFE7FFE7C368196010BD817843789B007B
:1049B000034A9A580348FCF767FEC046FFFBFFFF17
:1049C0004403002004A1001070B50400056A802291
:1049D000D2002A43C378002B14D06379002B1ED059
:1049E000802189010A4301214B4063712423E35C48
:1049F000002B02D08023DB011A4300212000FFF7A7
:104A0000B9FF70BD836AC2699446634419002A00E5
:104A10000069FFF721FA842212022A43DDE7002110
:104A2000E0E770B504000E001500437D002B18D19F
:104A3000A5610023E3612A1CABB2402B00D94022C0
:104A400092B2226201236375A662AD1A6B425D4188
:104A50002423E55401330022E2542000FFF7B4FF81
:104A600070BDFFF77DFFE3E770B50400C3681B6806
:104A70009D05AD0DC278002A13D11B040BD4C36968
:104A80005B19C361E378002B04D0236AAB4201D9E0
:104A9000E369A36170BD0D4B0D4ABF210D48FCF7C2
:104AA000D5FD1B040CD5836AC26994466344180083
:104AB0002A002169FFF7D0F9E3695B19E361E1E7B7
:104AC000054B034AC9210348FCF7C0FD24A100108F
:104AD00030A2001044A1001094A1001070B5040091
:104AE000457D002D17D0FFF7BFFFA169E2698B1A42
:104AF000402B00D940232362D318CB1A584243419C
:104B00002420235491420BD303D02000FFF75CFFF5
:104B10000025280070BD8178034A0448FCF7B4FDE5
:104B20000348FCF7B1FDC04644030020B4A10010C7
:104B3000E0A1001010B50478002C04D0002B09D09F
:104B4000FFF76FFF10BD0C21044B054AFF310548EC
:104B5000FCF77CFDFFF7C2FFF4E7C04604A200109B
:104B60001CA2001044A1001070B5002503E00E78CF
:104B70007519ADB2891995420AD24C78052CF6D137
:104B80008E787A34344064000419F609A355EEE7B0
:104B900070BD000070B505001B4C372200212000BD
:104BA000FFF754F9E01C1022FF21FFF74FF9200016
:104BB00013301222FF21FFF749F900F0D5FF00243E
:104BC0000EE0E3001B1B9A00104B1B689B1802E0D1
:104BD000230010E000235B68280098470134E4B20A
:104BE0000B4B1B78A3420ED30A4A002AF0D0A342F3
:104BF000E7D8E31ADBB2002BECD1DA00D21A92002C
:104C0000054B9B18E7E770BD5CD400202CD1002039
:104C100084DE002000000000CCA3001070B5050069
:104C20000C001600086900F0A9FFE36831002800B5
:104C3000984770BDF0B5D6464F464646C0B580464B
:104C40000139C8B2FFF752FB002802D04378022B8B
:104C50000AD0604A60496148FFF732FA0020E0BCA0
:104C6000BA46B146A846F0BDC5796A1101235C4C2D
:104C70001A40110122781026B2430A432270AD1166
:104C80002B405B01D2B220218A43134323700600DC
:104C900009368178C3781B020B4382469A4478E038
:104CA0003378B146F6187BE0CA2292004A494B4855
:104CB000FFF706FA0020D2E7E3001B1B9A00494BDE
:104CC0001B689B1802E0230014E000239B683A0055
:104CD000310040469847051E14D10134E4B2424BDE
:104CE0001B78A34251D3414A002AECD0A342E3D817
:104CF000E31ADBB2002BE8D1DA00D21A92003C4B67
:104D00009B18E3E7082823D9874221D3B278344B94
:104D10009B18DB78FF2B22D1314B9B18DC704B4664
:104D2000002B2AD09A78B3789A421FD14B461A7931
:104D300073799A421AD101234A46D2789A421CD9F1
:104D4000B1785918264A5218D4700133DBB2F3E710
:104D5000284A21492148FFF7B3F900207FE7264A76
:104D60001D491E48FFF7ACF9002078E7234A1A498D
:104D70001A48FFF7A5F9002071E7194823002A0017
:104D800031001330FFF7F0FE7619174B1B78A34262
:104D90000FD3564515D273780B2B81D0002399463B
:104DA0007378042B00D07FE753469F1BBFB20024CB
:104DB00095E7D522920008490848FFF781F90020BD
:104DC0004DE70F4B002B03D000E000BF012046E76A
:104DD000012044E71303000080A3001048A2001044
:104DE0005CD400202CD1002084DE002000000000D4
:104DF000CCA300103603000039030000420300007A
:104E000000000000F0B583B005000C00CB78887876
:104E10000F2B5ED89B00324AD3589F46FFF762FAA9
:104E2000020012232100280000F04AFE52E02D4B20
:104E3000002B10D000E000BF06006B469F1D811CB8
:104E400002223800FFF708F83B88320021002800D2
:104E500000F036FE3EE000203CE0FFF747FA061E79
:104E60000DD06B469F1D811C02223800FEF7F4FF17
:104E70003B8832002100280000F022FE2AE01A4A76
:104E80001A491B48FFF71CF9002023E00B794979E8
:104E900009021943FFF72EFA021E1DD003782100E4
:104EA000280000F00DFE15E0124B002B16D000E09C
:104EB00000BF021E05D003782100280000F000FE8C
:104EC00008E0F032920009490948FFF7F9F800209C
:104ED00000E0002003B0F0BD0020FBE70020F9E770
:104EE00060A2001000000000A203000068A30010F0
:104EF00048A2001000000000024B5878431E984161
:104F0000C0B270475CD40020024B18784007C00F35
:104F10007047C0465CD4002010B5372200212348DA
:104F2000FEF794FF224C2000FCF7CAF8214B1C60CE
:104F3000214C20001830FCF7D6F8200001F0CFFB00
:104F40001E4B1C601E4B002B04D01E4800E000BF0F
:104F50001D4B186000240DE0E3001B1B9A001A4B48
:104F60001B689B1802E023000FE000231B68984792
:104F70000134E4B2134B1B78A3420ED3104A002A2B
:104F8000F1D0A342E8D8E31ADBB2002BEDD1DA006E
:104F9000D21A92000D4B9B18E8E70020FFF7ECFBBC
:104FA0000020FFF7A3FB012010BDC0465CD4002009
:104FB00014D4002094D400204C03002098D4002066
:104FC0000000000084DE00202CD10020CCA30010C3
:104FD00010B501004378042B00D16CE005D8022BFA
:104FE00032D0032B00D09FE010BD052B00D09BE0FA
:104FF000624B1B78DB07F7D5604A137804208343A4
:1050000013705F4B1C686369002B00D086E0A269B7
:10501000EFF3108072B61368002BFCD0BFF35F8FE4
:10502000E061200001F0EFFAA269E369BFF35F8F4E
:105030000021116083F310880028D5D1AD22514999
:105040005148FFF73DF8CFE74C4B1A7801208243D7
:105050001A701A78013082431A7000225A701A7836
:10506000023082431A70464B1C686369002B1CD1C6
:10507000A269EFF3108072B61368002BFCD0BFF367
:105080005F8FE061200001F0BEFAA269E369BFF31F
:105090005F8F0021116083F310880028A4D1AD2216
:1050A00038493948FFF70CF89EE7384B354AA721B5
:1050B0003748FCF7CBFA314B1B78DB0700D493E77A
:1050C0002E4A13780420034313702D4B1C68636928
:1050D000002B1DD1A269EFF3108072B61368002B6C
:1050E000FCD0BFF35F8FE061200001F08CFAA26971
:1050F000E369BFF35F8F0021116083F310880028FC
:1051000000D071E7AD221F491F48FEF7D9FF6BE7BA
:105110001E4B1C4AA7211E48FCF798FA1B4B194A44
:10512000A7211B48FCF792FA154B1C686369002BFA
:105130001DD1A269EFF3108072B61368002BFCD06A
:10514000BFF35F8FE061200001F05DFAA269E369BF
:10515000BFF35F8F0021116083F31088002800D017
:1051600042E7AD2207490848FEF7AAFF3CE7074B94
:10517000044AA7210648FCF769FAC0465CD400201F
:1051800098D4002058A3001048A20010A0A200103C
:10519000B0A2001070B584B006000D0014000C22FF
:1051A000002101A8FEF752FE6B461E715D712100C1
:1051B00001A8FFF70DFF04B070BD70B584B0060004
:1051C0000D0014000C22002101A8FEF73FFE6B46E3
:1051D0001E7106236A4653710822290002A8FEF7B1
:1051E0003BFE210001A8FFF7F3FE04B070BDF0B54F
:1051F000CE46474680B585B080460F0016001D009C
:105200000CAB1B78994601AC0C2200212000FEF764
:105210001DFE434623700723637027710396657153
:1052200049462000FFF7D4FE05B0C0BCB946B046E1
:10523000F0BD10B5FFF70AFB10BD0000F0B5D64673
:105240004F464646C0B581460C0017009846089B5D
:105250009A46002516E0184A18491948FEF730FF0B
:1052600000263000E0BCBA46B146A846F0BD154A5B
:1052700012491348FEF724FFF3E7099A13702378C5
:10528000E4180135AF4214DD6378052BE3D1E178F2
:105290008907890F4145DED121004846FFF7C9FF44
:1052A000061EE4D0A378DA09012AE6D0524613702C
:1052B000E5E70126D5E7C0462D04000044A3001011
:1052C00048A200102E04000070B57F250D40CC09C7
:1052D0006A001E4B9B181B1920335B79DB07DE0F1E
:1052E000002B30D1194B9B181B1920335B795B07BE
:1052F0002AD4174B18680121494203F009FF6A00BC
:10530000124B9B181B1920335B79DB0708D40F4B1A
:105310009B181B1920335B795B0712D5002600E030
:105320000026002E08D06D0008494D192C19203494
:105330006379042213436371054B186803F0C8FEB8
:1053400002E00126EDE70026300070BD5CD40020AD
:1053500094D4002070B57F250D40CC09154B1868FA
:105360000121494203F0D4FE6A00134B9B181B191C
:1053700020335B79DB0708D40F4B9B181B192033B4
:105380005B795B0713D4002600E00026002E08D0CE
:105390006900094D6D182C19203463790422934358
:1053A0006371044B186803F093FE300070BD012652
:1053B000ECE7C04694D400205CD40020F0B5C6468B
:1053C00000B582B001937F250D40CE096F00174CC8
:1053D000E419A41920346479E4071DD46F00134C38
:1053E000E419A419203463790127BC4667463B437E
:1053F0006371019BFFF74AFA002813D16D000B4B34
:105400005D19AE1920367379012293437371737954
:1054100003329343737105E0054A06490648FEF7D7
:105420004FFE002002B080BCB846F0BD5CD4002026
:105430009504000034A3001048A2001070B57F242A
:105440000C40CD09FFF73CFA6400064B1B195B19B1
:1054500020335A7902210A435A715A7901210A43A9
:105460005A7170BD5CD4002070B57F240C40CD090A
:10547000FFF73AFA6400064B1B195B1920335A797F
:1054800002218A435A715A7901398A435A7170BD8F
:105490005CD400207F220A40CB09520003498918BE
:1054A000C918203148798007C00F70475CD40020AC
:1054B000F0B5C64600B582B005000C00002000F033
:1054C0005DFB227860231340602B12D0402B17D055
:1054D0002278D206D20E012A00D1CAE0022A00D1D7
:1054E00004E1002A1CD00026300002B080BCB8467F
:1054F000F0BDC14AC149C248FEF7E2FD0026F3E70C
:10550000C04B002B00D164E1BF4B002B02D0180030
:1055100000F034FB2100280000E000BF0600E3E7B4
:10552000202B0AD0002B00D05BE16378092B00D937
:1055300059E19B00B54AD3589F4623790F2B00D9D8
:1055400049E1B34AD318DB78B24A002A05D0B24AFF
:105550001278934212D39B1ADBB2002B00D03CE1AD
:10556000D900CB1A9B00AD49C918002900D136E1FA
:1055700022002800FFF752FB0600B5E7D900CB1A3E
:105580009B00A74A1168C918EFE7200000F0FCFA59
:10559000A1782800FFF7C0F89D4A137802210B4339
:1055A00013700126A0E79A4B5B786A4606321370A7
:1055B00001232100280000F083FA012694E7A77850
:1055C000934B5B78002B01D1002F07D1904B5F707C
:1055D0002100280000F058FA012685E7390028004C
:1055E000FFF728FB061EF1D18E4A84498448FEF756
:1055F00067FD79E721002800FFF704FC060073E748
:10560000A278E3781B021343012B01D000266BE73D
:105610007F4A137808210B4313702100280000F003
:1056200033FA012660E7A278E3781B021343012BCB
:1056300001D0002658E7764A137808218B4313706F
:105640002100280000F020FA01264DE7704B1A785F
:10565000510992080223134001220A4013436A466B
:105660000632138002232100280000F029FA0126C7
:105670003AE723790F2B00D9B7E0654AD318DB78D6
:10568000644A002A05D0644A1278934227D39B1AB1
:10569000DBB2002B00D0AAE0D900CB1A9B005F49F7
:1056A000C918002900D1A4E022002800FFF7B6FAAB
:1056B000061E00D018E7237860221A4200D013E7B4
:1056C00063780A2B00D00FE76B469A1D00231370F6
:1056D00001332100280000F0F3F9013604E7D90076
:1056E000CB1A9B004E4A1168C918DAE721797F2747
:1056F0000F40CA099046082F0AD8002B3AD1637888
:10570000012B19D0032B26D0002B08D00026EBE666
:10571000454A3A493A48FEF7D3FC0026E4E6280019
:10572000FFF7B8FE6B469A1D108002232100280067
:1057300000F0C6F901261EE0A078E3781B020343BF
:1057400005D02100280000F09FF9012613E0280071
:10575000FFF78AFEF5E7A078E3781B02034305D044
:105760002100280000F090F9012604E02800FFF74E
:1057700065FEF5E700267B00254FFF184744FB7CBC
:10578000244A002A05D0244A127893421AD39B1A3D
:10579000DBB2002B0DD1D900CB1A9B001F49C918D1
:1057A000002906D022002800FFF738FA002800D090
:1057B0000600237860221A4200D095E6002000F00F
:1057C000DDF991E6D900CB1A9B00154A1168C9187A
:1057D000E6E7002688E6002686E6002684E6002620
:1057E00082E6002680E600267EE600267CE600268D
:1057F0007AE6002678E6C0464302000094A3001033
:1058000048A200100000000000000000E8A2001004
:105810005CD400200000000084DE0020CCA3001037
:105820002CD1002083020000CE02000030B585B0EC
:1058300000F078FD00280ED105B030BD6C4B6D4AEC
:1058400099216D48FBF702FF01AC2078FFF7A2F920
:1058500022796A4B9A706A4B1C686569002DEDD1FC
:10586000A269EFF3108172B61368002BFCD0BFF36E
:105870005F8FE16101A9200000F089FEA269E36960
:10588000BFF35F8F0021116083F310880028D3D00D
:1058900001AB5B78082BDED89B005A4AD3589F4651
:1058A00001AB1878FFF776F9574B002BD3D000E007
:1058B00000BFD0E7514A137801210B43137001ABAD
:1058C000187802A9FFF7F4FD0028C4D101AC2078B4
:1058D0000021FEF7F5FF20788021FEF7F1FFBAE7FF
:1058E00001AB19797F220A40CC095000434B1B18A9
:1058F0001B19203358790125A8435871587903356D
:10590000A8435871002A1DD052003C4B9A18121916
:10591000D37C3E4A002A05D03D4A1278934218D3E0
:105920009B1ADBB2002B1BD1DA00D21A9200394B42
:105930009B18002B14D05C6901A84279039B007866
:10594000A04788E701A84279039B007800F02AF974
:1059500081E7DA00D21A92002F4B1B689B18E8E708
:105960002E4A2F492F48FEF7ABFB65E72E4B002B45
:1059700000D170E7214B18780007C00F00E000BF8E
:1059800069E72A4B002B00D165E700E000BF62E722
:10599000E3001B1B9A00204B1B689B1802E02300AE
:1059A00014E02B009B69002B02D001AA10789847C5
:1059B0000134E4B2164B1B78A34200D24BE7134AE2
:1059C000002AECD0A342E3D8E31ADBB2002BE8D1E3
:1059D000DA00D21A92000F4B9B18E3E70024E9E7A4
:1059E000029B002B00D136E70398984733E7C04667
:1059F000A0A20010ACA30010B0A200105CD4002044
:105A000098D4002010A30010000000000000000047
:105A100084DE0020CCA300102CD100200A0200005C
:105A2000C0A3001048A20010000000000000000009
:105A3000F8B50500124B9F89DE89B91B89B20B1C92
:105A4000402900D940239CB20D4B1B785BB2002B40
:105A500008DB0021B74211D00A4A23002800FEF7D4
:105A600015FFF8BDB74201D18021F3E7044B9968D7
:105A700022000448FEF7F0F98021EBE70022ECE772
:105A800000D400201CD4002070B506000C000B4D83
:105A900008222800FEF7E0F90023AB60EB81AB8120
:105AA0000023E356002B06DB802100230022300078
:105AB000FEF7ECFE70BD0021F7E7C04600D40020E1
:105AC000F0B5C64600B580460C0016001D00234FF9
:105AD00008223800FEF7C0F9BE600023FB81A379DD
